{
  "_format": "hh-sol-artifact-1",
  "contractName": "Collection",
  "sourceName": "contracts/collection.sol",
  "abi": [
    {
      "inputs": [
        {
          "internalType": "address",
          "name": "",
          "type": "address"
        }
      ],
      "name": "addressTostruct",
      "outputs": [
        {
          "internalType": "string",
          "name": "_name",
          "type": "string"
        },
        {
          "internalType": "string",
          "name": "_symbol",
          "type": "string"
        },
        {
          "internalType": "string",
          "name": "_image",
          "type": "string"
        }
      ],
      "stateMutability": "view",
      "type": "function"
    },
    {
      "inputs": [
        {
          "internalType": "string",
          "name": "_name",
          "type": "string"
        },
        {
          "internalType": "string",
          "name": "_symbol",
          "type": "string"
        },
        {
          "internalType": "string",
          "name": "_image",
          "type": "string"
        }
      ],
      "name": "createCollection",
      "outputs": [],
      "stateMutability": "nonpayable",
      "type": "function"
    },
    {
      "inputs": [
        {
          "internalType": "string",
          "name": "",
          "type": "string"
        }
      ],
      "name": "nameToaddress",
      "outputs": [
        {
          "internalType": "address",
          "name": "",
          "type": "address"
        }
      ],
      "stateMutability": "view",
      "type": "function"
    },
    {
      "inputs": [
        {
          "internalType": "uint256",
          "name": "",
          "type": "uint256"
        }
      ],
      "name": "nftCollection",
      "outputs": [
        {
          "internalType": "contract NFTCONTRACT",
          "name": "",
          "type": "address"
        }
      ],
      "stateMutability": "view",
      "type": "function"
    },
    {
      "inputs": [],
      "name": "noOfCollections",
      "outputs": [
        {
          "internalType": "uint256",
          "name": "",
          "type": "uint256"
        }
      ],
      "stateMutability": "view",
      "type": "function"
    }
  ],
  "bytecode": "0x608060405234801561001057600080fd5b5061426c806100206000396000f3fe60806040523480156200001157600080fd5b50600436106200005e5760003560e01c80637c711b271462000063578063c5ad764b1462000099578063ea8241de14620000d1578063ece86c2114620000f3578063f78a92d11462000113575b600080fd5b6200008160048036038101906200007b9190620007eb565b62000149565b604051620000909190620008f8565b60405180910390f35b620000b76004803603810190620000b19190620006d9565b62000189565b604051620000c89392919062000960565b60405180910390f35b620000db62000363565b604051620000ea9190620009b2565b60405180910390f35b6200011160048036038101906200010b91906200074a565b6200036f565b005b6200013160048036038101906200012b919062000705565b62000532565b604051620001409190620008db565b60405180910390f35b600081815481106200015a57600080fd5b906000526020600020016000915054906101000a900473ffffffffffffffffffffffffffffffffffffffff1681565b6002602052806000526040600020600091509050806000018054620001ae9062000b00565b80601f0160208091040260200160405190810160405280929190818152602001828054620001dc9062000b00565b80156200022d5780601f1062000201576101008083540402835291602001916200022d565b820191906000526020600020905b8154815290600101906020018083116200020f57829003601f168201915b505050505090806001018054620002449062000b00565b80601f0160208091040260200160405190810160405280929190818152602001828054620002729062000b00565b8015620002c35780601f106200029757610100808354040283529160200191620002c3565b820191906000526020600020905b815481529060010190602001808311620002a557829003601f168201915b505050505090806002018054620002da9062000b00565b80601f0160208091040260200160405190810160405280929190818152602001828054620003089062000b00565b8015620003595780601f106200032d5761010080835404028352916020019162000359565b820191906000526020600020905b8154815290600101906020018083116200033b57829003601f168201915b5050505050905083565b60008080549050905090565b600083833360405162000382906200057b565b620003909392919062000915565b604051809103906000f080158015620003ad573d6000803e3d6000fd5b5090506000819080600181540180825580915050600190039060005260206000200160009091909190916101000a81548173ffffffffffffffffffffffffffffffffffffffff021916908373ffffffffffffffffffffffffffffffffffffffff16021790555080600185604051620004269190620008c2565b908152602001604051809103902060006101000a81548173ffffffffffffffffffffffffffffffffffffffff021916908373ffffffffffffffffffffffffffffffffffffffff160217905550604051806060016040528085815260200184815260200183815250600260008373ffffffffffffffffffffffffffffffffffffffff1673ffffffffffffffffffffffffffffffffffffffff1681526020019081526020016000206000820151816000019080519060200190620004ea92919062000589565b5060208201518160010190805190602001906200050992919062000589565b5060408201518160020190805190602001906200052892919062000589565b5090505050505050565b6001818051602081018201805184825260208301602085012081835280955050505050506000915054906101000a900473ffffffffffffffffffffffffffffffffffffffff1681565b6136278062000c1083390190565b828054620005979062000b00565b90600052602060002090601f016020900481019282620005bb576000855562000607565b82601f10620005d657805160ff191683800117855562000607565b8280016001018555821562000607579182015b8281111562000606578251825591602001919060010190620005e9565b5b5090506200061691906200061a565b5090565b5b80821115620006355760008160009055506001016200061b565b5090565b6000620006506200064a84620009f8565b620009cf565b9050828152602081018484840111156200066957600080fd5b6200067684828562000abb565b509392505050565b6000813590506200068f8162000bdb565b92915050565b600082601f830112620006a757600080fd5b8135620006b984826020860162000639565b91505092915050565b600081359050620006d38162000bf5565b92915050565b600060208284031215620006ec57600080fd5b6000620006fc848285016200067e565b91505092915050565b6000602082840312156200071857600080fd5b600082013567ffffffffffffffff8111156200073357600080fd5b620007418482850162000695565b91505092915050565b6000806000606084860312156200076057600080fd5b600084013567ffffffffffffffff8111156200077b57600080fd5b620007898682870162000695565b935050602084013567ffffffffffffffff811115620007a757600080fd5b620007b58682870162000695565b925050604084013567ffffffffffffffff811115620007d357600080fd5b620007e18682870162000695565b9150509250925092565b600060208284031215620007fe57600080fd5b60006200080e84828501620006c2565b91505092915050565b620008228162000a55565b82525050565b620008338162000a93565b82525050565b6000620008468262000a2e565b62000852818562000a39565b93506200086481856020860162000aca565b6200086f8162000bca565b840191505092915050565b6000620008878262000a2e565b62000893818562000a4a565b9350620008a581856020860162000aca565b80840191505092915050565b620008bc8162000a89565b82525050565b6000620008d082846200087a565b915081905092915050565b6000602082019050620008f2600083018462000817565b92915050565b60006020820190506200090f600083018462000828565b92915050565b6000606082019050818103600083015262000931818662000839565b9050818103602083015262000947818562000839565b905062000958604083018462000817565b949350505050565b600060608201905081810360008301526200097c818662000839565b9050818103602083015262000992818562000839565b90508181036040830152620009a8818462000839565b9050949350505050565b6000602082019050620009c96000830184620008b1565b92915050565b6000620009db620009ee565b9050620009e9828262000b36565b919050565b6000604051905090565b600067ffffffffffffffff82111562000a165762000a1562000b9b565b5b62000a218262000bca565b9050602081019050919050565b600081519050919050565b600082825260208201905092915050565b600081905092915050565b600062000a628262000a69565b9050919050565b600073ffffffffffffffffffffffffffffffffffffffff82169050919050565b6000819050919050565b600062000aa08262000aa7565b9050919050565b600062000ab48262000a69565b9050919050565b82818337600083830152505050565b60005b8381101562000aea57808201518184015260208101905062000acd565b8381111562000afa576000848401525b50505050565b6000600282049050600182168062000b1957607f821691505b6020821081141562000b305762000b2f62000b6c565b5b50919050565b62000b418262000bca565b810181811067ffffffffffffffff8211171562000b635762000b6262000b9b565b5b80604052505050565b7f4e487b7100000000000000000000000000000000000000000000000000000000600052602260045260246000fd5b7f4e487b7100000000000000000000000000000000000000000000000000000000600052604160045260246000fd5b6000601f19601f8301169050919050565b62000be68162000a55565b811462000bf257600080fd5b50565b62000c008162000a89565b811462000c0c57600080fd5b5056fe60806040523480156200001157600080fd5b5060405162003627380380620036278339818101604052810190620000379190620001f0565b8282816000908051906020019062000051929190620000b7565b5080600190805190602001906200006a929190620000b7565b50505080600860006101000a81548173ffffffffffffffffffffffffffffffffffffffff021916908373ffffffffffffffffffffffffffffffffffffffff16021790555050505062000436565b828054620000c59062000341565b90600052602060002090601f016020900481019282620000e9576000855562000135565b82601f106200010457805160ff191683800117855562000135565b8280016001018555821562000135579182015b828111156200013457825182559160200191906001019062000117565b5b50905062000144919062000148565b5090565b5b808211156200016357600081600090555060010162000149565b5090565b60006200017e6200017884620002a1565b62000278565b9050828152602081018484840111156200019757600080fd5b620001a48482856200030b565b509392505050565b600081519050620001bd816200041c565b92915050565b600082601f830112620001d557600080fd5b8151620001e784826020860162000167565b91505092915050565b6000806000606084860312156200020657600080fd5b600084015167ffffffffffffffff8111156200022157600080fd5b6200022f86828701620001c3565b935050602084015167ffffffffffffffff8111156200024d57600080fd5b6200025b86828701620001c3565b92505060406200026e86828701620001ac565b9150509250925092565b60006200028462000297565b905062000292828262000377565b919050565b6000604051905090565b600067ffffffffffffffff821115620002bf57620002be620003dc565b5b620002ca826200040b565b9050602081019050919050565b6000620002e482620002eb565b9050919050565b600073ffffffffffffffffffffffffffffffffffffffff82169050919050565b60005b838110156200032b5780820151818401526020810190506200030e565b838111156200033b576000848401525b50505050565b600060028204905060018216806200035a57607f821691505b60208210811415620003715762000370620003ad565b5b50919050565b62000382826200040b565b810181811067ffffffffffffffff82111715620003a457620003a3620003dc565b5b80604052505050565b7f4e487b7100000000000000000000000000000000000000000000000000000000600052602260045260246000fd5b7f4e487b7100000000000000000000000000000000000000000000000000000000600052604160045260246000fd5b6000601f19601f8301169050919050565b6200042781620002d7565b81146200043357600080fd5b50565b6131e180620004466000396000f3fe6080604052600436106101095760003560e01c806395d89b4111610095578063c87b56dd11610064578063c87b56dd1461037b578063d11eccd6146103b8578063d85d3d27146103e1578063dbd8db631461041e578063e985e9c51461043a57610109565b806395d89b41146102d35780639f181b5e146102fe578063a22cb46514610329578063b88d4fde1461035257610109565b806323b872dd116100dc57806323b872dd146101dc57806342842e0e146102055780636352211e1461022e57806370a082311461026b5780638da5cb5b146102a857610109565b806301ffc9a71461010e57806306fdde031461014b578063081812fc14610176578063095ea7b3146101b3575b600080fd5b34801561011a57600080fd5b5061013560048036038101906101309190611ffd565b610477565b6040516101429190612510565b60405180910390f35b34801561015757600080fd5b50610160610559565b60405161016d919061252b565b60405180910390f35b34801561018257600080fd5b5061019d60048036038101906101989190612090565b6105eb565b6040516101aa91906124a9565b60405180910390f35b3480156101bf57600080fd5b506101da60048036038101906101d59190611fc1565b610670565b005b3480156101e857600080fd5b5061020360048036038101906101fe9190611ebb565b610788565b005b34801561021157600080fd5b5061022c60048036038101906102279190611ebb565b6107e8565b005b34801561023a57600080fd5b5061025560048036038101906102509190612090565b610808565b60405161026291906124a9565b60405180910390f35b34801561027757600080fd5b50610292600480360381019061028d9190611e56565b6108ba565b60405161029f91906127ad565b60405180910390f35b3480156102b457600080fd5b506102bd610972565b6040516102ca91906124a9565b60405180910390f35b3480156102df57600080fd5b506102e8610998565b6040516102f5919061252b565b60405180910390f35b34801561030a57600080fd5b50610313610a2a565b60405161032091906127ad565b60405180910390f35b34801561033557600080fd5b50610350600480360381019061034b9190611f85565b610a30565b005b34801561035e57600080fd5b5061037960048036038101906103749190611f0a565b610a46565b005b34801561038757600080fd5b506103a2600480360381019061039d9190612090565b610aa8565b6040516103af919061252b565b60405180910390f35b3480156103c457600080fd5b506103df60048036038101906103da9190611ebb565b610bfa565b005b3480156103ed57600080fd5b506104086004803603810190610403919061204f565b610c0a565b60405161041591906127ad565b60405180910390f35b610438600480360381019061043391906120b9565b610cd6565b005b34801561044657600080fd5b50610461600480360381019061045c9190611e7f565b610e36565b60405161046e9190612510565b60405180910390f35b60007f80ac58cd000000000000000000000000000000000000000000000000000000007bffffffffffffffffffffffffffffffffffffffffffffffffffffffff1916827bffffffffffffffffffffffffffffffffffffffffffffffffffffffff1916148061054257507f5b5e139f000000000000000000000000000000000000000000000000000000007bffffffffffffffffffffffffffffffffffffffffffffffffffffffff1916827bffffffffffffffffffffffffffffffffffffffffffffffffffffffff1916145b80610552575061055182610eca565b5b9050919050565b60606000805461056890612a6f565b80601f016020809104026020016040519081016040528092919081815260200182805461059490612a6f565b80156105e15780601f106105b6576101008083540402835291602001916105e1565b820191906000526020600020905b8154815290600101906020018083116105c457829003601f168201915b5050505050905090565b60006105f682610f34565b610635576040517f08c379a000000000000000000000000000000000000000000000000000000000815260040161062c9061270d565b60405180910390fd5b6004600083815260200190815260200160002060009054906101000a900473ffffffffffffffffffffffffffffffffffffffff169050919050565b600061067b82610808565b90508073ffffffffffffffffffffffffffffffffffffffff168373ffffffffffffffffffffffffffffffffffffffff1614156106ec576040517f08c379a00000000000000000000000000000000000000000000000000000000081526004016106e39061274d565b60405180910390fd5b8073ffffffffffffffffffffffffffffffffffffffff1661070b610fa0565b73ffffffffffffffffffffffffffffffffffffffff16148061073a575061073981610734610fa0565b610e36565b5b610779576040517f08c379a00000000000000000000000000000000000000000000000000000000081526004016107709061262d565b60405180910390fd5b6107838383610fa8565b505050565b610799610793610fa0565b82611061565b6107d8576040517f08c379a00000000000000000000000000000000000000000000000000000000081526004016107cf9061278d565b60405180910390fd5b6107e383838361113f565b505050565b61080383838360405180602001604052806000815250610a46565b505050565b6000806002600084815260200190815260200160002060009054906101000a900473ffffffffffffffffffffffffffffffffffffffff169050600073ffffffffffffffffffffffffffffffffffffffff168173ffffffffffffffffffffffffffffffffffffffff1614156108b1576040517f08c379a00000000000000000000000000000000000000000000000000000000081526004016108a89061266d565b60405180910390fd5b80915050919050565b60008073ffffffffffffffffffffffffffffffffffffffff168273ffffffffffffffffffffffffffffffffffffffff16141561092b576040517f08c379a00000000000000000000000000000000000000000000000000000000081526004016109229061264d565b60405180910390fd5b600360008373ffffffffffffffffffffffffffffffffffffffff1673ffffffffffffffffffffffffffffffffffffffff168152602001908152602001600020549050919050565b600860009054906101000a900473ffffffffffffffffffffffffffffffffffffffff1681565b6060600180546109a790612a6f565b80601f01602080910402602001604051908101604052809291908181526020018280546109d390612a6f565b8015610a205780601f106109f557610100808354040283529160200191610a20565b820191906000526020600020905b815481529060010190602001808311610a0357829003601f168201915b5050505050905090565b60075481565b610a42610a3b610fa0565b83836113a6565b5050565b610a57610a51610fa0565b83611061565b610a96576040517f08c379a0000000000000000000000000000000000000000000000000000000008152600401610a8d9061278d565b60405180910390fd5b610aa284848484611513565b50505050565b6060610ab382610f34565b610af2576040517f08c379a0000000000000000000000000000000000000000000000000000000008152600401610ae9906126ed565b60405180910390fd5b6000600660008481526020019081526020016000208054610b1290612a6f565b80601f0160208091040260200160405190810160405280929190818152602001828054610b3e90612a6f565b8015610b8b5780601f10610b6057610100808354040283529160200191610b8b565b820191906000526020600020905b815481529060010190602001808311610b6e57829003601f168201915b505050505090506000610b9c61156f565b9050600081511415610bb2578192505050610bf5565b600082511115610be7578082604051602001610bcf929190612485565b60405160208183030381529060405292505050610bf5565b610bf084611586565b925050505b919050565b610c05838383610788565b505050565b60003373ffffffffffffffffffffffffffffffffffffffff16600860009054906101000a900473ffffffffffffffffffffffffffffffffffffffff1673ffffffffffffffffffffffffffffffffffffffff1614610c9c576040517f08c379a0000000000000000000000000000000000000000000000000000000008152600401610c939061276d565b60405180910390fd5b60076000815480929190610caf90612ad2565b9190505550610cc03360075461162d565b610ccc6007548361164b565b6007549050919050565b6000600590506000349050600060648383610cf19190612919565b610cfb91906128e8565b905060008183610d0b9190612892565b905060008811610d50576040517f08c379a0000000000000000000000000000000000000000000000000000000008152600401610d479061260d565b60405180910390fd5b80341015610d93576040517f08c379a0000000000000000000000000000000000000000000000000000000008152600401610d8a906126cd565b60405180910390fd5b8573ffffffffffffffffffffffffffffffffffffffff166108fc849081150290604051600060405180830381858888f19350505050158015610dd9573d6000803e3d6000fd5b508673ffffffffffffffffffffffffffffffffffffffff166108fc839081150290604051600060405180830381858888f19350505050158015610e20573d6000803e3d6000fd5b50610e2c86868a610788565b5050505050505050565b6000600560008473ffffffffffffffffffffffffffffffffffffffff1673ffffffffffffffffffffffffffffffffffffffff16815260200190815260200160002060008373ffffffffffffffffffffffffffffffffffffffff1673ffffffffffffffffffffffffffffffffffffffff16815260200190815260200160002060009054906101000a900460ff16905092915050565b60007f01ffc9a7000000000000000000000000000000000000000000000000000000007bffffffffffffffffffffffffffffffffffffffffffffffffffffffff1916827bffffffffffffffffffffffffffffffffffffffffffffffffffffffff1916149050919050565b60008073ffffffffffffffffffffffffffffffffffffffff166002600084815260200190815260200160002060009054906101000a900473ffffffffffffffffffffffffffffffffffffffff1673ffffffffffffffffffffffffffffffffffffffff1614159050919050565b600033905090565b816004600083815260200190815260200160002060006101000a81548173ffffffffffffffffffffffffffffffffffffffff021916908373ffffffffffffffffffffffffffffffffffffffff160217905550808273ffffffffffffffffffffffffffffffffffffffff1661101b83610808565b73ffffffffffffffffffffffffffffffffffffffff167f8c5be1e5ebec7d5bd14f71427d1e84f3dd0314c0f7b2291e5b200ac8c7c3b92560405160405180910390a45050565b600061106c82610f34565b6110ab576040517f08c379a00000000000000000000000000000000000000000000000000000000081526004016110a2906125ed565b60405180910390fd5b60006110b683610808565b90508073ffffffffffffffffffffffffffffffffffffffff168473ffffffffffffffffffffffffffffffffffffffff16148061112557508373ffffffffffffffffffffffffffffffffffffffff1661110d846105eb565b73ffffffffffffffffffffffffffffffffffffffff16145b8061113657506111358185610e36565b5b91505092915050565b8273ffffffffffffffffffffffffffffffffffffffff1661115f82610808565b73ffffffffffffffffffffffffffffffffffffffff16146111b5576040517f08c379a00000000000000000000000000000000000000000000000000000000081526004016111ac9061256d565b60405180910390fd5b600073ffffffffffffffffffffffffffffffffffffffff168273ffffffffffffffffffffffffffffffffffffffff161415611225576040517f08c379a000000000000000000000000000000000000000000000000000000000815260040161121c906125ad565b60405180910390fd5b6112308383836116bf565b61123b600082610fa8565b6001600360008573ffffffffffffffffffffffffffffffffffffffff1673ffffffffffffffffffffffffffffffffffffffff168152602001908152602001600020600082825461128b9190612973565b925050819055506001600360008473ffffffffffffffffffffffffffffffffffffffff1673ffffffffffffffffffffffffffffffffffffffff16815260200190815260200160002060008282546112e29190612892565b92505081905550816002600083815260200190815260200160002060006101000a81548173ffffffffffffffffffffffffffffffffffffffff021916908373ffffffffffffffffffffffffffffffffffffffff160217905550808273ffffffffffffffffffffffffffffffffffffffff168473ffffffffffffffffffffffffffffffffffffffff167fddf252ad1be2c89b69c2b068fc378daa952ba7f163c4a11628f55a4df523b3ef60405160405180910390a46113a18383836116c4565b505050565b8173ffffffffffffffffffffffffffffffffffffffff168373ffffffffffffffffffffffffffffffffffffffff161415611415576040517f08c379a000000000000000000000000000000000000000000000000000000000815260040161140c906125cd565b60405180910390fd5b80600560008573ffffffffffffffffffffffffffffffffffffffff1673ffffffffffffffffffffffffffffffffffffffff16815260200190815260200160002060008473ffffffffffffffffffffffffffffffffffffffff1673ffffffffffffffffffffffffffffffffffffffff16815260200190815260200160002060006101000a81548160ff0219169083151502179055508173ffffffffffffffffffffffffffffffffffffffff168373ffffffffffffffffffffffffffffffffffffffff167f17307eab39ab6107e8899845ad3d59bd9653f200f220920489ca2b5937696c31836040516115069190612510565b60405180910390a3505050565b61151e84848461113f565b61152a848484846116c9565b611569576040517f08c379a00000000000000000000000000000000000000000000000000000000081526004016115609061254d565b60405180910390fd5b50505050565b606060405180602001604052806000815250905090565b606061159182610f34565b6115d0576040517f08c379a00000000000000000000000000000000000000000000000000000000081526004016115c79061272d565b60405180910390fd5b60006115da61156f565b905060008151116115fa5760405180602001604052806000815250611625565b8061160484611860565b604051602001611615929190612485565b6040516020818303038152906040525b915050919050565b611647828260405180602001604052806000815250611a0d565b5050565b61165482610f34565b611693576040517f08c379a000000000000000000000000000000000000000000000000000000000815260040161168a9061268d565b60405180910390fd5b806006600084815260200190815260200160002090805190602001906116ba929190611c65565b505050565b505050565b505050565b60006116ea8473ffffffffffffffffffffffffffffffffffffffff16611a68565b15611853578373ffffffffffffffffffffffffffffffffffffffff1663150b7a02611713610fa0565b8786866040518563ffffffff1660e01b815260040161173594939291906124c4565b602060405180830381600087803b15801561174f57600080fd5b505af192505050801561178057506040513d601f19601f8201168201806040525081019061177d9190612026565b60015b611803573d80600081146117b0576040519150601f19603f3d011682016040523d82523d6000602084013e6117b5565b606091505b506000815114156117fb576040517f08c379a00000000000000000000000000000000000000000000000000000000081526004016117f29061254d565b60405180910390fd5b805181602001fd5b63150b7a0260e01b7bffffffffffffffffffffffffffffffffffffffffffffffffffffffff1916817bffffffffffffffffffffffffffffffffffffffffffffffffffffffff191614915050611858565b600190505b949350505050565b606060008214156118a8576040518060400160405280600181526020017f30000000000000000000000000000000000000000000000000000000000000008152509050611a08565b600082905060005b600082146118da5780806118c390612ad2565b915050600a826118d391906128e8565b91506118b0565b60008167ffffffffffffffff81111561191c577f4e487b7100000000000000000000000000000000000000000000000000000000600052604160045260246000fd5b6040519080825280601f01601f19166020018201604052801561194e5781602001600182028036833780820191505090505b5090505b60008514611a01576001826119679190612973565b9150600a856119769190612b1b565b60306119829190612892565b60f81b8183815181106119be577f4e487b7100000000000000000000000000000000000000000000000000000000600052603260045260246000fd5b60200101907effffffffffffffffffffffffffffffffffffffffffffffffffffffffffffff1916908160001a905350600a856119fa91906128e8565b9450611952565b8093505050505b919050565b611a178383611a8b565b611a2460008484846116c9565b611a63576040517f08c379a0000000000000000000000000000000000000000000000000000000008152600401611a5a9061254d565b60405180910390fd5b505050565b6000808273ffffffffffffffffffffffffffffffffffffffff163b119050919050565b600073ffffffffffffffffffffffffffffffffffffffff168273ffffffffffffffffffffffffffffffffffffffff161415611afb576040517f08c379a0000000000000000000000000000000000000000000000000000000008152600401611af2906126ad565b60405180910390fd5b611b0481610f34565b15611b44576040517f08c379a0000000000000000000000000000000000000000000000000000000008152600401611b3b9061258d565b60405180910390fd5b611b50600083836116bf565b6001600360008473ffffffffffffffffffffffffffffffffffffffff1673ffffffffffffffffffffffffffffffffffffffff1681526020019081526020016000206000828254611ba09190612892565b92505081905550816002600083815260200190815260200160002060006101000a81548173ffffffffffffffffffffffffffffffffffffffff021916908373ffffffffffffffffffffffffffffffffffffffff160217905550808273ffffffffffffffffffffffffffffffffffffffff16600073ffffffffffffffffffffffffffffffffffffffff167fddf252ad1be2c89b69c2b068fc378daa952ba7f163c4a11628f55a4df523b3ef60405160405180910390a4611c61600083836116c4565b5050565b828054611c7190612a6f565b90600052602060002090601f016020900481019282611c935760008555611cda565b82601f10611cac57805160ff1916838001178555611cda565b82800160010185558215611cda579182015b82811115611cd9578251825591602001919060010190611cbe565b5b509050611ce79190611ceb565b5090565b5b80821115611d04576000816000905550600101611cec565b5090565b6000611d1b611d16846127ed565b6127c8565b905082815260208101848484011115611d3357600080fd5b611d3e848285612a2d565b509392505050565b6000611d59611d548461281e565b6127c8565b905082815260208101848484011115611d7157600080fd5b611d7c848285612a2d565b509392505050565b600081359050611d9381613138565b92915050565b600081359050611da88161314f565b92915050565b600081359050611dbd81613166565b92915050565b600081359050611dd28161317d565b92915050565b600081519050611de78161317d565b92915050565b600082601f830112611dfe57600080fd5b8135611e0e848260208601611d08565b91505092915050565b600082601f830112611e2857600080fd5b8135611e38848260208601611d46565b91505092915050565b600081359050611e5081613194565b92915050565b600060208284031215611e6857600080fd5b6000611e7684828501611d84565b91505092915050565b60008060408385031215611e9257600080fd5b6000611ea085828601611d84565b9250506020611eb185828601611d84565b9150509250929050565b600080600060608486031215611ed057600080fd5b6000611ede86828701611d84565b9350506020611eef86828701611d84565b9250506040611f0086828701611e41565b9150509250925092565b60008060008060808587031215611f2057600080fd5b6000611f2e87828801611d84565b9450506020611f3f87828801611d84565b9350506040611f5087828801611e41565b925050606085013567ffffffffffffffff811115611f6d57600080fd5b611f7987828801611ded565b91505092959194509250565b60008060408385031215611f9857600080fd5b6000611fa685828601611d84565b9250506020611fb785828601611dae565b9150509250929050565b60008060408385031215611fd457600080fd5b6000611fe285828601611d84565b9250506020611ff385828601611e41565b9150509250929050565b60006020828403121561200f57600080fd5b600061201d84828501611dc3565b91505092915050565b60006020828403121561203857600080fd5b600061204684828501611dd8565b91505092915050565b60006020828403121561206157600080fd5b600082013567ffffffffffffffff81111561207b57600080fd5b61208784828501611e17565b91505092915050565b6000602082840312156120a257600080fd5b60006120b084828501611e41565b91505092915050565b600080600080608085870312156120cf57600080fd5b60006120dd87828801611e41565b94505060206120ee87828801611d99565b93505060406120ff87828801611d99565b925050606061211087828801611d84565b91505092959194509250565b612125816129a7565b82525050565b612134816129cb565b82525050565b60006121458261284f565b61214f8185612865565b935061215f818560208601612a3c565b61216881612c08565b840191505092915050565b600061217e8261285a565b6121888185612876565b9350612198818560208601612a3c565b6121a181612c08565b840191505092915050565b60006121b78261285a565b6121c18185612887565b93506121d1818560208601612a3c565b80840191505092915050565b60006121ea603283612876565b91506121f582612c19565b604082019050919050565b600061220d602583612876565b915061221882612c68565b604082019050919050565b6000612230601c83612876565b915061223b82612cb7565b602082019050919050565b6000612253602483612876565b915061225e82612ce0565b604082019050919050565b6000612276601983612876565b915061228182612d2f565b602082019050919050565b6000612299602c83612876565b91506122a482612d58565b604082019050919050565b60006122bc601283612876565b91506122c782612da7565b602082019050919050565b60006122df603883612876565b91506122ea82612dd0565b604082019050919050565b6000612302602a83612876565b915061230d82612e1f565b604082019050919050565b6000612325602983612876565b915061233082612e6e565b604082019050919050565b6000612348602e83612876565b915061235382612ebd565b604082019050919050565b600061236b602083612876565b915061237682612f0c565b602082019050919050565b600061238e603383612876565b915061239982612f35565b604082019050919050565b60006123b1603183612876565b91506123bc82612f84565b604082019050919050565b60006123d4602c83612876565b91506123df82612fd3565b604082019050919050565b60006123f7602f83612876565b915061240282613022565b604082019050919050565b600061241a602183612876565b915061242582613071565b604082019050919050565b600061243d600983612876565b9150612448826130c0565b602082019050919050565b6000612460603183612876565b915061246b826130e9565b604082019050919050565b61247f81612a23565b82525050565b600061249182856121ac565b915061249d82846121ac565b91508190509392505050565b60006020820190506124be600083018461211c565b92915050565b60006080820190506124d9600083018761211c565b6124e6602083018661211c565b6124f36040830185612476565b8181036060830152612505818461213a565b905095945050505050565b6000602082019050612525600083018461212b565b92915050565b600060208201905081810360008301526125458184612173565b905092915050565b60006020820190508181036000830152612566816121dd565b9050919050565b6000602082019050818103600083015261258681612200565b9050919050565b600060208201905081810360008301526125a681612223565b9050919050565b600060208201905081810360008301526125c681612246565b9050919050565b600060208201905081810360008301526125e681612269565b9050919050565b600060208201905081810360008301526126068161228c565b9050919050565b60006020820190508181036000830152612626816122af565b9050919050565b60006020820190508181036000830152612646816122d2565b9050919050565b60006020820190508181036000830152612666816122f5565b9050919050565b6000602082019050818103600083015261268681612318565b9050919050565b600060208201905081810360008301526126a68161233b565b9050919050565b600060208201905081810360008301526126c68161235e565b9050919050565b600060208201905081810360008301526126e681612381565b9050919050565b60006020820190508181036000830152612706816123a4565b9050919050565b60006020820190508181036000830152612726816123c7565b9050919050565b60006020820190508181036000830152612746816123ea565b9050919050565b600060208201905081810360008301526127668161240d565b9050919050565b6000602082019050818103600083015261278681612430565b9050919050565b600060208201905081810360008301526127a681612453565b9050919050565b60006020820190506127c26000830184612476565b92915050565b60006127d26127e3565b90506127de8282612aa1565b919050565b6000604051905090565b600067ffffffffffffffff82111561280857612807612bd9565b5b61281182612c08565b9050602081019050919050565b600067ffffffffffffffff82111561283957612838612bd9565b5b61284282612c08565b9050602081019050919050565b600081519050919050565b600081519050919050565b600082825260208201905092915050565b600082825260208201905092915050565b600081905092915050565b600061289d82612a23565b91506128a883612a23565b9250827fffffffffffffffffffffffffffffffffffffffffffffffffffffffffffffffff038211156128dd576128dc612b4c565b5b828201905092915050565b60006128f382612a23565b91506128fe83612a23565b92508261290e5761290d612b7b565b5b828204905092915050565b600061292482612a23565b915061292f83612a23565b9250817fffffffffffffffffffffffffffffffffffffffffffffffffffffffffffffffff048311821515161561296857612967612b4c565b5b828202905092915050565b600061297e82612a23565b915061298983612a23565b92508282101561299c5761299b612b4c565b5b828203905092915050565b60006129b282612a03565b9050919050565b60006129c482612a03565b9050919050565b60008115159050919050565b60007fffffffff0000000000000000000000000000000000000000000000000000000082169050919050565b600073ffffffffffffffffffffffffffffffffffffffff82169050919050565b6000819050919050565b82818337600083830152505050565b60005b83811015612a5a578082015181840152602081019050612a3f565b83811115612a69576000848401525b50505050565b60006002820490506001821680612a8757607f821691505b60208210811415612a9b57612a9a612baa565b5b50919050565b612aaa82612c08565b810181811067ffffffffffffffff82111715612ac957612ac8612bd9565b5b80604052505050565b6000612add82612a23565b91507fffffffffffffffffffffffffffffffffffffffffffffffffffffffffffffffff821415612b1057612b0f612b4c565b5b600182019050919050565b6000612b2682612a23565b9150612b3183612a23565b925082612b4157612b40612b7b565b5b828206905092915050565b7f4e487b7100000000000000000000000000000000000000000000000000000000600052601160045260246000fd5b7f4e487b7100000000000000000000000000000000000000000000000000000000600052601260045260246000fd5b7f4e487b7100000000000000000000000000000000000000000000000000000000600052602260045260246000fd5b7f4e487b7100000000000000000000000000000000000000000000000000000000600052604160045260246000fd5b6000601f19601f8301169050919050565b7f4552433732313a207472616e7366657220746f206e6f6e20455243373231526560008201527f63656976657220696d706c656d656e7465720000000000000000000000000000602082015250565b7f4552433732313a207472616e736665722066726f6d20696e636f72726563742060008201527f6f776e6572000000000000000000000000000000000000000000000000000000602082015250565b7f4552433732313a20746f6b656e20616c7265616479206d696e74656400000000600082015250565b7f4552433732313a207472616e7366657220746f20746865207a65726f2061646460008201527f7265737300000000000000000000000000000000000000000000000000000000602082015250565b7f4552433732313a20617070726f766520746f2063616c6c657200000000000000600082015250565b7f4552433732313a206f70657261746f7220717565727920666f72206e6f6e657860008201527f697374656e7420746f6b656e0000000000000000000000000000000000000000602082015250565b7f6974656d20646f65736e27742065786973740000000000000000000000000000600082015250565b7f4552433732313a20617070726f76652063616c6c6572206973206e6f74206f7760008201527f6e6572206e6f7220617070726f76656420666f7220616c6c0000000000000000602082015250565b7f4552433732313a2062616c616e636520717565727920666f7220746865207a6560008201527f726f206164647265737300000000000000000000000000000000000000000000602082015250565b7f4552433732313a206f776e657220717565727920666f72206e6f6e657869737460008201527f656e7420746f6b656e0000000000000000000000000000000000000000000000602082015250565b7f45524337323155524953746f726167653a2055524920736574206f66206e6f6e60008201527f6578697374656e7420746f6b656e000000000000000000000000000000000000602082015250565b7f4552433732313a206d696e7420746f20746865207a65726f2061646472657373600082015250565b7f4e6f7420656e6f75676820657468657220746f20636f766572206974656d207060008201527f7269636520616e64206d61726b65742066656500000000000000000000000000602082015250565b7f45524337323155524953746f726167653a2055524920717565727920666f722060008201527f6e6f6e6578697374656e7420746f6b656e000000000000000000000000000000602082015250565b7f4552433732313a20617070726f76656420717565727920666f72206e6f6e657860008201527f697374656e7420746f6b656e0000000000000000000000000000000000000000602082015250565b7f4552433732314d657461646174613a2055524920717565727920666f72206e6f60008201527f6e6578697374656e7420746f6b656e0000000000000000000000000000000000602082015250565b7f4552433732313a20617070726f76616c20746f2063757272656e74206f776e6560008201527f7200000000000000000000000000000000000000000000000000000000000000602082015250565b7f4e6f74206f776e65720000000000000000000000000000000000000000000000600082015250565b7f4552433732313a207472616e736665722063616c6c6572206973206e6f74206f60008201527f776e6572206e6f7220617070726f766564000000000000000000000000000000602082015250565b613141816129a7565b811461314c57600080fd5b50565b613158816129b9565b811461316357600080fd5b50565b61316f816129cb565b811461317a57600080fd5b50565b613186816129d7565b811461319157600080fd5b50565b61319d81612a23565b81146131a857600080fd5b5056fea26469706673582212207b2d29ecb17279b5f0871e444f824a933cd74c8b6fa0b6bf457de6fb8f33ad9764736f6c63430008040033a26469706673582212203108c2df957068e41e07f283988b16ebe56e92f8ec5cade820df892b133f501264736f6c63430008040033",
  "linkReferences": {},
  "deployedLinkReferences": {}
}