{
  "_format": "hh-sol-artifact-1",
  "contractName": "Collection",
  "sourceName": "contracts/collection.sol",
  "abi": [
    {
      "inputs": [
        {
          "internalType": "address",
          "name": "",
          "type": "address"
        }
      ],
      "name": "addressTostruct",
      "outputs": [
        {
          "internalType": "string",
          "name": "_name",
          "type": "string"
        },
        {
          "internalType": "string",
          "name": "_symbol",
          "type": "string"
        }
      ],
      "stateMutability": "view",
      "type": "function"
    },
    {
      "inputs": [
        {
          "internalType": "string",
          "name": "_name",
          "type": "string"
        },
        {
          "internalType": "string",
          "name": "_symbol",
          "type": "string"
        }
      ],
      "name": "createCollection",
      "outputs": [],
      "stateMutability": "nonpayable",
      "type": "function"
    },
    {
      "inputs": [
        {
          "internalType": "string",
          "name": "",
          "type": "string"
        }
      ],
      "name": "nameToaddress",
      "outputs": [
        {
          "internalType": "address",
          "name": "",
          "type": "address"
        }
      ],
      "stateMutability": "view",
      "type": "function"
    },
    {
      "inputs": [
        {
          "internalType": "uint256",
          "name": "",
          "type": "uint256"
        }
      ],
      "name": "nftCollection",
      "outputs": [
        {
          "internalType": "contract NFTCONTRACT",
          "name": "",
          "type": "address"
        }
      ],
      "stateMutability": "view",
      "type": "function"
    },
    {
      "inputs": [],
      "name": "noOfCollections",
      "outputs": [
        {
          "internalType": "uint256",
          "name": "",
          "type": "uint256"
        }
      ],
      "stateMutability": "view",
      "type": "function"
    }
  ],
  "bytecode": "0x608060405234801561001057600080fd5b50613ce3806100206000396000f3fe60806040523480156200001157600080fd5b50600436106200005e5760003560e01c8063176b9b7514620000635780637c711b271462000083578063c5ad764b14620000b9578063ea8241de14620000f0578063f78a92d11462000112575b600080fd5b6200008160048036038101906200007b91906200068d565b62000148565b005b620000a160048036038101906200009b919062000700565b620002e5565b604051620000b091906200080d565b60405180910390f35b620000d76004803603810190620000d191906200061c565b62000325565b604051620000e79291906200082a565b60405180910390f35b620000fa62000469565b604051620001099190620008b0565b60405180910390f35b6200013060048036038101906200012a919062000648565b62000475565b6040516200013f9190620007f0565b60405180910390f35b60008282336040516200015b90620004be565b620001699392919062000865565b604051809103906000f08015801562000186573d6000803e3d6000fd5b5090506000819080600181540180825580915050600190039060005260206000200160009091909190916101000a81548173ffffffffffffffffffffffffffffffffffffffff021916908373ffffffffffffffffffffffffffffffffffffffff16021790555080600184604051620001ff9190620007d7565b908152602001604051809103902060006101000a81548173ffffffffffffffffffffffffffffffffffffffff021916908373ffffffffffffffffffffffffffffffffffffffff160217905550604051806040016040528084815260200183815250600260008373ffffffffffffffffffffffffffffffffffffffff1673ffffffffffffffffffffffffffffffffffffffff1681526020019081526020016000206000820151816000019080519060200190620002bd929190620004cc565b506020820151816001019080519060200190620002dc929190620004cc565b50905050505050565b60008181548110620002f657600080fd5b906000526020600020016000915054906101000a900473ffffffffffffffffffffffffffffffffffffffff1681565b60026020528060005260406000206000915090508060000180546200034a90620009fe565b80601f01602080910402602001604051908101604052809291908181526020018280546200037890620009fe565b8015620003c95780601f106200039d57610100808354040283529160200191620003c9565b820191906000526020600020905b815481529060010190602001808311620003ab57829003601f168201915b505050505090806001018054620003e090620009fe565b80601f01602080910402602001604051908101604052809291908181526020018280546200040e90620009fe565b80156200045f5780601f1062000433576101008083540402835291602001916200045f565b820191906000526020600020905b8154815290600101906020018083116200044157829003601f168201915b5050505050905082565b60008080549050905090565b6001818051602081018201805184825260208301602085012081835280955050505050506000915054906101000a900473ffffffffffffffffffffffffffffffffffffffff1681565b6131a08062000b0e83390190565b828054620004da90620009fe565b90600052602060002090601f016020900481019282620004fe57600085556200054a565b82601f106200051957805160ff19168380011785556200054a565b828001600101855582156200054a579182015b82811115620005495782518255916020019190600101906200052c565b5b5090506200055991906200055d565b5090565b5b80821115620005785760008160009055506001016200055e565b5090565b6000620005936200058d84620008f6565b620008cd565b905082815260208101848484011115620005ac57600080fd5b620005b9848285620009b9565b509392505050565b600081359050620005d28162000ad9565b92915050565b600082601f830112620005ea57600080fd5b8135620005fc8482602086016200057c565b91505092915050565b600081359050620006168162000af3565b92915050565b6000602082840312156200062f57600080fd5b60006200063f84828501620005c1565b91505092915050565b6000602082840312156200065b57600080fd5b600082013567ffffffffffffffff8111156200067657600080fd5b6200068484828501620005d8565b91505092915050565b60008060408385031215620006a157600080fd5b600083013567ffffffffffffffff811115620006bc57600080fd5b620006ca85828601620005d8565b925050602083013567ffffffffffffffff811115620006e857600080fd5b620006f685828601620005d8565b9150509250929050565b6000602082840312156200071357600080fd5b6000620007238482850162000605565b91505092915050565b620007378162000953565b82525050565b620007488162000991565b82525050565b60006200075b826200092c565b62000767818562000937565b935062000779818560208601620009c8565b620007848162000ac8565b840191505092915050565b60006200079c826200092c565b620007a8818562000948565b9350620007ba818560208601620009c8565b80840191505092915050565b620007d18162000987565b82525050565b6000620007e582846200078f565b915081905092915050565b60006020820190506200080760008301846200072c565b92915050565b60006020820190506200082460008301846200073d565b92915050565b600060408201905081810360008301526200084681856200074e565b905081810360208301526200085c81846200074e565b90509392505050565b600060608201905081810360008301526200088181866200074e565b905081810360208301526200089781856200074e565b9050620008a860408301846200072c565b949350505050565b6000602082019050620008c76000830184620007c6565b92915050565b6000620008d9620008ec565b9050620008e7828262000a34565b919050565b6000604051905090565b600067ffffffffffffffff82111562000914576200091362000a99565b5b6200091f8262000ac8565b9050602081019050919050565b600081519050919050565b600082825260208201905092915050565b600081905092915050565b6000620009608262000967565b9050919050565b600073ffffffffffffffffffffffffffffffffffffffff82169050919050565b6000819050919050565b60006200099e82620009a5565b9050919050565b6000620009b28262000967565b9050919050565b82818337600083830152505050565b60005b83811015620009e8578082015181840152602081019050620009cb565b83811115620009f8576000848401525b50505050565b6000600282049050600182168062000a1757607f821691505b6020821081141562000a2e5762000a2d62000a6a565b5b50919050565b62000a3f8262000ac8565b810181811067ffffffffffffffff8211171562000a615762000a6062000a99565b5b80604052505050565b7f4e487b7100000000000000000000000000000000000000000000000000000000600052602260045260246000fd5b7f4e487b7100000000000000000000000000000000000000000000000000000000600052604160045260246000fd5b6000601f19601f8301169050919050565b62000ae48162000953565b811462000af057600080fd5b50565b62000afe8162000987565b811462000b0a57600080fd5b5056fe60806040523480156200001157600080fd5b50604051620031a0380380620031a08339818101604052810190620000379190620001f0565b8282816000908051906020019062000051929190620000b7565b5080600190805190602001906200006a929190620000b7565b50505080600860006101000a81548173ffffffffffffffffffffffffffffffffffffffff021916908373ffffffffffffffffffffffffffffffffffffffff16021790555050505062000436565b828054620000c59062000341565b90600052602060002090601f016020900481019282620000e9576000855562000135565b82601f106200010457805160ff191683800117855562000135565b8280016001018555821562000135579182015b828111156200013457825182559160200191906001019062000117565b5b50905062000144919062000148565b5090565b5b808211156200016357600081600090555060010162000149565b5090565b60006200017e6200017884620002a1565b62000278565b9050828152602081018484840111156200019757600080fd5b620001a48482856200030b565b509392505050565b600081519050620001bd816200041c565b92915050565b600082601f830112620001d557600080fd5b8151620001e784826020860162000167565b91505092915050565b6000806000606084860312156200020657600080fd5b600084015167ffffffffffffffff8111156200022157600080fd5b6200022f86828701620001c3565b935050602084015167ffffffffffffffff8111156200024d57600080fd5b6200025b86828701620001c3565b92505060406200026e86828701620001ac565b9150509250925092565b60006200028462000297565b905062000292828262000377565b919050565b6000604051905090565b600067ffffffffffffffff821115620002bf57620002be620003dc565b5b620002ca826200040b565b9050602081019050919050565b6000620002e482620002eb565b9050919050565b600073ffffffffffffffffffffffffffffffffffffffff82169050919050565b60005b838110156200032b5780820151818401526020810190506200030e565b838111156200033b576000848401525b50505050565b600060028204905060018216806200035a57607f821691505b60208210811415620003715762000370620003ad565b5b50919050565b62000382826200040b565b810181811067ffffffffffffffff82111715620003a457620003a3620003dc565b5b80604052505050565b7f4e487b7100000000000000000000000000000000000000000000000000000000600052602260045260246000fd5b7f4e487b7100000000000000000000000000000000000000000000000000000000600052604160045260246000fd5b6000601f19601f8301169050919050565b6200042781620002d7565b81146200043357600080fd5b50565b612d5a80620004466000396000f3fe608060405234801561001057600080fd5b50600436106101005760003560e01c80638da5cb5b11610097578063b88d4fde11610066578063b88d4fde146102ad578063c87b56dd146102c9578063d85d3d27146102f9578063e985e9c51461032957610100565b80638da5cb5b1461023757806395d89b41146102555780639f181b5e14610273578063a22cb4651461029157610100565b806323b872dd116100d357806323b872dd1461019f57806342842e0e146101bb5780636352211e146101d757806370a082311461020757610100565b806301ffc9a71461010557806306fdde0314610135578063081812fc14610153578063095ea7b314610183575b600080fd5b61011f600480360381019061011a9190611d5a565b610359565b60405161012c91906121c4565b60405180910390f35b61013d61043b565b60405161014a91906121df565b60405180910390f35b61016d60048036038101906101689190611ded565b6104cd565b60405161017a919061215d565b60405180910390f35b61019d60048036038101906101989190611d1e565b610552565b005b6101b960048036038101906101b49190611c18565b61066a565b005b6101d560048036038101906101d09190611c18565b6106ca565b005b6101f160048036038101906101ec9190611ded565b6106ea565b6040516101fe919061215d565b60405180910390f35b610221600480360381019061021c9190611bb3565b61079c565b60405161022e9190612421565b60405180910390f35b61023f610854565b60405161024c919061215d565b60405180910390f35b61025d61087a565b60405161026a91906121df565b60405180910390f35b61027b61090c565b6040516102889190612421565b60405180910390f35b6102ab60048036038101906102a69190611ce2565b610912565b005b6102c760048036038101906102c29190611c67565b610928565b005b6102e360048036038101906102de9190611ded565b61098a565b6040516102f091906121df565b60405180910390f35b610313600480360381019061030e9190611dac565b610adc565b6040516103209190612421565b60405180910390f35b610343600480360381019061033e9190611bdc565b610ba8565b60405161035091906121c4565b60405180910390f35b60007f80ac58cd000000000000000000000000000000000000000000000000000000007bffffffffffffffffffffffffffffffffffffffffffffffffffffffff1916827bffffffffffffffffffffffffffffffffffffffffffffffffffffffff1916148061042457507f5b5e139f000000000000000000000000000000000000000000000000000000007bffffffffffffffffffffffffffffffffffffffffffffffffffffffff1916827bffffffffffffffffffffffffffffffffffffffffffffffffffffffff1916145b80610434575061043382610c3c565b5b9050919050565b60606000805461044a90612677565b80601f016020809104026020016040519081016040528092919081815260200182805461047690612677565b80156104c35780601f10610498576101008083540402835291602001916104c3565b820191906000526020600020905b8154815290600101906020018083116104a657829003601f168201915b5050505050905090565b60006104d882610ca6565b610517576040517f08c379a000000000000000000000000000000000000000000000000000000000815260040161050e90612381565b60405180910390fd5b6004600083815260200190815260200160002060009054906101000a900473ffffffffffffffffffffffffffffffffffffffff169050919050565b600061055d826106ea565b90508073ffffffffffffffffffffffffffffffffffffffff168373ffffffffffffffffffffffffffffffffffffffff1614156105ce576040517f08c379a00000000000000000000000000000000000000000000000000000000081526004016105c5906123c1565b60405180910390fd5b8073ffffffffffffffffffffffffffffffffffffffff166105ed610d12565b73ffffffffffffffffffffffffffffffffffffffff16148061061c575061061b81610616610d12565b610ba8565b5b61065b576040517f08c379a0000000000000000000000000000000000000000000000000000000008152600401610652906122c1565b60405180910390fd5b6106658383610d1a565b505050565b61067b610675610d12565b82610dd3565b6106ba576040517f08c379a00000000000000000000000000000000000000000000000000000000081526004016106b190612401565b60405180910390fd5b6106c5838383610eb1565b505050565b6106e583838360405180602001604052806000815250610928565b505050565b6000806002600084815260200190815260200160002060009054906101000a900473ffffffffffffffffffffffffffffffffffffffff169050600073ffffffffffffffffffffffffffffffffffffffff168173ffffffffffffffffffffffffffffffffffffffff161415610793576040517f08c379a000000000000000000000000000000000000000000000000000000000815260040161078a90612301565b60405180910390fd5b80915050919050565b60008073ffffffffffffffffffffffffffffffffffffffff168273ffffffffffffffffffffffffffffffffffffffff16141561080d576040517f08c379a0000000000000000000000000000000000000000000000000000000008152600401610804906122e1565b60405180910390fd5b600360008373ffffffffffffffffffffffffffffffffffffffff1673ffffffffffffffffffffffffffffffffffffffff168152602001908152602001600020549050919050565b600860009054906101000a900473ffffffffffffffffffffffffffffffffffffffff1681565b60606001805461088990612677565b80601f01602080910402602001604051908101604052809291908181526020018280546108b590612677565b80156109025780601f106108d757610100808354040283529160200191610902565b820191906000526020600020905b8154815290600101906020018083116108e557829003601f168201915b5050505050905090565b60075481565b61092461091d610d12565b8383611118565b5050565b610939610933610d12565b83610dd3565b610978576040517f08c379a000000000000000000000000000000000000000000000000000000000815260040161096f90612401565b60405180910390fd5b61098484848484611285565b50505050565b606061099582610ca6565b6109d4576040517f08c379a00000000000000000000000000000000000000000000000000000000081526004016109cb90612361565b60405180910390fd5b60006006600084815260200190815260200160002080546109f490612677565b80601f0160208091040260200160405190810160405280929190818152602001828054610a2090612677565b8015610a6d5780601f10610a4257610100808354040283529160200191610a6d565b820191906000526020600020905b815481529060010190602001808311610a5057829003601f168201915b505050505090506000610a7e6112e1565b9050600081511415610a94578192505050610ad7565b600082511115610ac9578082604051602001610ab1929190612139565b60405160208183030381529060405292505050610ad7565b610ad2846112f8565b925050505b919050565b60003373ffffffffffffffffffffffffffffffffffffffff16600860009054906101000a900473ffffffffffffffffffffffffffffffffffffffff1673ffffffffffffffffffffffffffffffffffffffff1614610b6e576040517f08c379a0000000000000000000000000000000000000000000000000000000008152600401610b65906123e1565b60405180910390fd5b60076000815480929190610b81906126da565b9190505550610b923360075461139f565b610b9e600754836113bd565b6007549050919050565b6000600560008473ffffffffffffffffffffffffffffffffffffffff1673ffffffffffffffffffffffffffffffffffffffff16815260200190815260200160002060008373ffffffffffffffffffffffffffffffffffffffff1673ffffffffffffffffffffffffffffffffffffffff16815260200190815260200160002060009054906101000a900460ff16905092915050565b60007f01ffc9a7000000000000000000000000000000000000000000000000000000007bffffffffffffffffffffffffffffffffffffffffffffffffffffffff1916827bffffffffffffffffffffffffffffffffffffffffffffffffffffffff1916149050919050565b60008073ffffffffffffffffffffffffffffffffffffffff166002600084815260200190815260200160002060009054906101000a900473ffffffffffffffffffffffffffffffffffffffff1673ffffffffffffffffffffffffffffffffffffffff1614159050919050565b600033905090565b816004600083815260200190815260200160002060006101000a81548173ffffffffffffffffffffffffffffffffffffffff021916908373ffffffffffffffffffffffffffffffffffffffff160217905550808273ffffffffffffffffffffffffffffffffffffffff16610d8d836106ea565b73ffffffffffffffffffffffffffffffffffffffff167f8c5be1e5ebec7d5bd14f71427d1e84f3dd0314c0f7b2291e5b200ac8c7c3b92560405160405180910390a45050565b6000610dde82610ca6565b610e1d576040517f08c379a0000000000000000000000000000000000000000000000000000000008152600401610e14906122a1565b60405180910390fd5b6000610e28836106ea565b90508073ffffffffffffffffffffffffffffffffffffffff168473ffffffffffffffffffffffffffffffffffffffff161480610e9757508373ffffffffffffffffffffffffffffffffffffffff16610e7f846104cd565b73ffffffffffffffffffffffffffffffffffffffff16145b80610ea85750610ea78185610ba8565b5b91505092915050565b8273ffffffffffffffffffffffffffffffffffffffff16610ed1826106ea565b73ffffffffffffffffffffffffffffffffffffffff1614610f27576040517f08c379a0000000000000000000000000000000000000000000000000000000008152600401610f1e90612221565b60405180910390fd5b600073ffffffffffffffffffffffffffffffffffffffff168273ffffffffffffffffffffffffffffffffffffffff161415610f97576040517f08c379a0000000000000000000000000000000000000000000000000000000008152600401610f8e90612261565b60405180910390fd5b610fa2838383611431565b610fad600082610d1a565b6001600360008573ffffffffffffffffffffffffffffffffffffffff1673ffffffffffffffffffffffffffffffffffffffff1681526020019081526020016000206000828254610ffd919061258d565b925050819055506001600360008473ffffffffffffffffffffffffffffffffffffffff1673ffffffffffffffffffffffffffffffffffffffff16815260200190815260200160002060008282546110549190612506565b92505081905550816002600083815260200190815260200160002060006101000a81548173ffffffffffffffffffffffffffffffffffffffff021916908373ffffffffffffffffffffffffffffffffffffffff160217905550808273ffffffffffffffffffffffffffffffffffffffff168473ffffffffffffffffffffffffffffffffffffffff167fddf252ad1be2c89b69c2b068fc378daa952ba7f163c4a11628f55a4df523b3ef60405160405180910390a4611113838383611436565b505050565b8173ffffffffffffffffffffffffffffffffffffffff168373ffffffffffffffffffffffffffffffffffffffff161415611187576040517f08c379a000000000000000000000000000000000000000000000000000000000815260040161117e90612281565b60405180910390fd5b80600560008573ffffffffffffffffffffffffffffffffffffffff1673ffffffffffffffffffffffffffffffffffffffff16815260200190815260200160002060008473ffffffffffffffffffffffffffffffffffffffff1673ffffffffffffffffffffffffffffffffffffffff16815260200190815260200160002060006101000a81548160ff0219169083151502179055508173ffffffffffffffffffffffffffffffffffffffff168373ffffffffffffffffffffffffffffffffffffffff167f17307eab39ab6107e8899845ad3d59bd9653f200f220920489ca2b5937696c318360405161127891906121c4565b60405180910390a3505050565b611290848484610eb1565b61129c8484848461143b565b6112db576040517f08c379a00000000000000000000000000000000000000000000000000000000081526004016112d290612201565b60405180910390fd5b50505050565b606060405180602001604052806000815250905090565b606061130382610ca6565b611342576040517f08c379a0000000000000000000000000000000000000000000000000000000008152600401611339906123a1565b60405180910390fd5b600061134c6112e1565b9050600081511161136c5760405180602001604052806000815250611397565b80611376846115d2565b604051602001611387929190612139565b6040516020818303038152906040525b915050919050565b6113b982826040518060200160405280600081525061177f565b5050565b6113c682610ca6565b611405576040517f08c379a00000000000000000000000000000000000000000000000000000000081526004016113fc90612321565b60405180910390fd5b8060066000848152602001908152602001600020908051906020019061142c9291906119d7565b505050565b505050565b505050565b600061145c8473ffffffffffffffffffffffffffffffffffffffff166117da565b156115c5578373ffffffffffffffffffffffffffffffffffffffff1663150b7a02611485610d12565b8786866040518563ffffffff1660e01b81526004016114a79493929190612178565b602060405180830381600087803b1580156114c157600080fd5b505af19250505080156114f257506040513d601f19601f820116820180604052508101906114ef9190611d83565b60015b611575573d8060008114611522576040519150601f19603f3d011682016040523d82523d6000602084013e611527565b606091505b5060008151141561156d576040517f08c379a000000000000000000000000000000000000000000000000000000000815260040161156490612201565b60405180910390fd5b805181602001fd5b63150b7a0260e01b7bffffffffffffffffffffffffffffffffffffffffffffffffffffffff1916817bffffffffffffffffffffffffffffffffffffffffffffffffffffffff1916149150506115ca565b600190505b949350505050565b6060600082141561161a576040518060400160405280600181526020017f3000000000000000000000000000000000000000000000000000000000000000815250905061177a565b600082905060005b6000821461164c578080611635906126da565b915050600a82611645919061255c565b9150611622565b60008167ffffffffffffffff81111561168e577f4e487b7100000000000000000000000000000000000000000000000000000000600052604160045260246000fd5b6040519080825280601f01601f1916602001820160405280156116c05781602001600182028036833780820191505090505b5090505b60008514611773576001826116d9919061258d565b9150600a856116e89190612723565b60306116f49190612506565b60f81b818381518110611730577f4e487b7100000000000000000000000000000000000000000000000000000000600052603260045260246000fd5b60200101907effffffffffffffffffffffffffffffffffffffffffffffffffffffffffffff1916908160001a905350600a8561176c919061255c565b94506116c4565b8093505050505b919050565b61178983836117fd565b611796600084848461143b565b6117d5576040517f08c379a00000000000000000000000000000000000000000000000000000000081526004016117cc90612201565b60405180910390fd5b505050565b6000808273ffffffffffffffffffffffffffffffffffffffff163b119050919050565b600073ffffffffffffffffffffffffffffffffffffffff168273ffffffffffffffffffffffffffffffffffffffff16141561186d576040517f08c379a000000000000000000000000000000000000000000000000000000000815260040161186490612341565b60405180910390fd5b61187681610ca6565b156118b6576040517f08c379a00000000000000000000000000000000000000000000000000000000081526004016118ad90612241565b60405180910390fd5b6118c260008383611431565b6001600360008473ffffffffffffffffffffffffffffffffffffffff1673ffffffffffffffffffffffffffffffffffffffff16815260200190815260200160002060008282546119129190612506565b92505081905550816002600083815260200190815260200160002060006101000a81548173ffffffffffffffffffffffffffffffffffffffff021916908373ffffffffffffffffffffffffffffffffffffffff160217905550808273ffffffffffffffffffffffffffffffffffffffff16600073ffffffffffffffffffffffffffffffffffffffff167fddf252ad1be2c89b69c2b068fc378daa952ba7f163c4a11628f55a4df523b3ef60405160405180910390a46119d360008383611436565b5050565b8280546119e390612677565b90600052602060002090601f016020900481019282611a055760008555611a4c565b82601f10611a1e57805160ff1916838001178555611a4c565b82800160010185558215611a4c579182015b82811115611a4b578251825591602001919060010190611a30565b5b509050611a599190611a5d565b5090565b5b80821115611a76576000816000905550600101611a5e565b5090565b6000611a8d611a8884612461565b61243c565b905082815260208101848484011115611aa557600080fd5b611ab0848285612635565b509392505050565b6000611acb611ac684612492565b61243c565b905082815260208101848484011115611ae357600080fd5b611aee848285612635565b509392505050565b600081359050611b0581612cc8565b92915050565b600081359050611b1a81612cdf565b92915050565b600081359050611b2f81612cf6565b92915050565b600081519050611b4481612cf6565b92915050565b600082601f830112611b5b57600080fd5b8135611b6b848260208601611a7a565b91505092915050565b600082601f830112611b8557600080fd5b8135611b95848260208601611ab8565b91505092915050565b600081359050611bad81612d0d565b92915050565b600060208284031215611bc557600080fd5b6000611bd384828501611af6565b91505092915050565b60008060408385031215611bef57600080fd5b6000611bfd85828601611af6565b9250506020611c0e85828601611af6565b9150509250929050565b600080600060608486031215611c2d57600080fd5b6000611c3b86828701611af6565b9350506020611c4c86828701611af6565b9250506040611c5d86828701611b9e565b9150509250925092565b60008060008060808587031215611c7d57600080fd5b6000611c8b87828801611af6565b9450506020611c9c87828801611af6565b9350506040611cad87828801611b9e565b925050606085013567ffffffffffffffff811115611cca57600080fd5b611cd687828801611b4a565b91505092959194509250565b60008060408385031215611cf557600080fd5b6000611d0385828601611af6565b9250506020611d1485828601611b0b565b9150509250929050565b60008060408385031215611d3157600080fd5b6000611d3f85828601611af6565b9250506020611d5085828601611b9e565b9150509250929050565b600060208284031215611d6c57600080fd5b6000611d7a84828501611b20565b91505092915050565b600060208284031215611d9557600080fd5b6000611da384828501611b35565b91505092915050565b600060208284031215611dbe57600080fd5b600082013567ffffffffffffffff811115611dd857600080fd5b611de484828501611b74565b91505092915050565b600060208284031215611dff57600080fd5b6000611e0d84828501611b9e565b91505092915050565b611e1f816125c1565b82525050565b611e2e816125d3565b82525050565b6000611e3f826124c3565b611e4981856124d9565b9350611e59818560208601612644565b611e6281612810565b840191505092915050565b6000611e78826124ce565b611e8281856124ea565b9350611e92818560208601612644565b611e9b81612810565b840191505092915050565b6000611eb1826124ce565b611ebb81856124fb565b9350611ecb818560208601612644565b80840191505092915050565b6000611ee46032836124ea565b9150611eef82612821565b604082019050919050565b6000611f076025836124ea565b9150611f1282612870565b604082019050919050565b6000611f2a601c836124ea565b9150611f35826128bf565b602082019050919050565b6000611f4d6024836124ea565b9150611f58826128e8565b604082019050919050565b6000611f706019836124ea565b9150611f7b82612937565b602082019050919050565b6000611f93602c836124ea565b9150611f9e82612960565b604082019050919050565b6000611fb66038836124ea565b9150611fc1826129af565b604082019050919050565b6000611fd9602a836124ea565b9150611fe4826129fe565b604082019050919050565b6000611ffc6029836124ea565b915061200782612a4d565b604082019050919050565b600061201f602e836124ea565b915061202a82612a9c565b604082019050919050565b60006120426020836124ea565b915061204d82612aeb565b602082019050919050565b60006120656031836124ea565b915061207082612b14565b604082019050919050565b6000612088602c836124ea565b915061209382612b63565b604082019050919050565b60006120ab602f836124ea565b91506120b682612bb2565b604082019050919050565b60006120ce6021836124ea565b91506120d982612c01565b604082019050919050565b60006120f16009836124ea565b91506120fc82612c50565b602082019050919050565b60006121146031836124ea565b915061211f82612c79565b604082019050919050565b6121338161262b565b82525050565b60006121458285611ea6565b91506121518284611ea6565b91508190509392505050565b60006020820190506121726000830184611e16565b92915050565b600060808201905061218d6000830187611e16565b61219a6020830186611e16565b6121a7604083018561212a565b81810360608301526121b98184611e34565b905095945050505050565b60006020820190506121d96000830184611e25565b92915050565b600060208201905081810360008301526121f98184611e6d565b905092915050565b6000602082019050818103600083015261221a81611ed7565b9050919050565b6000602082019050818103600083015261223a81611efa565b9050919050565b6000602082019050818103600083015261225a81611f1d565b9050919050565b6000602082019050818103600083015261227a81611f40565b9050919050565b6000602082019050818103600083015261229a81611f63565b9050919050565b600060208201905081810360008301526122ba81611f86565b9050919050565b600060208201905081810360008301526122da81611fa9565b9050919050565b600060208201905081810360008301526122fa81611fcc565b9050919050565b6000602082019050818103600083015261231a81611fef565b9050919050565b6000602082019050818103600083015261233a81612012565b9050919050565b6000602082019050818103600083015261235a81612035565b9050919050565b6000602082019050818103600083015261237a81612058565b9050919050565b6000602082019050818103600083015261239a8161207b565b9050919050565b600060208201905081810360008301526123ba8161209e565b9050919050565b600060208201905081810360008301526123da816120c1565b9050919050565b600060208201905081810360008301526123fa816120e4565b9050919050565b6000602082019050818103600083015261241a81612107565b9050919050565b6000602082019050612436600083018461212a565b92915050565b6000612446612457565b905061245282826126a9565b919050565b6000604051905090565b600067ffffffffffffffff82111561247c5761247b6127e1565b5b61248582612810565b9050602081019050919050565b600067ffffffffffffffff8211156124ad576124ac6127e1565b5b6124b682612810565b9050602081019050919050565b600081519050919050565b600081519050919050565b600082825260208201905092915050565b600082825260208201905092915050565b600081905092915050565b60006125118261262b565b915061251c8361262b565b9250827fffffffffffffffffffffffffffffffffffffffffffffffffffffffffffffffff0382111561255157612550612754565b5b828201905092915050565b60006125678261262b565b91506125728361262b565b92508261258257612581612783565b5b828204905092915050565b60006125988261262b565b91506125a38361262b565b9250828210156125b6576125b5612754565b5b828203905092915050565b60006125cc8261260b565b9050919050565b60008115159050919050565b60007fffffffff0000000000000000000000000000000000000000000000000000000082169050919050565b600073ffffffffffffffffffffffffffffffffffffffff82169050919050565b6000819050919050565b82818337600083830152505050565b60005b83811015612662578082015181840152602081019050612647565b83811115612671576000848401525b50505050565b6000600282049050600182168061268f57607f821691505b602082108114156126a3576126a26127b2565b5b50919050565b6126b282612810565b810181811067ffffffffffffffff821117156126d1576126d06127e1565b5b80604052505050565b60006126e58261262b565b91507fffffffffffffffffffffffffffffffffffffffffffffffffffffffffffffffff82141561271857612717612754565b5b600182019050919050565b600061272e8261262b565b91506127398361262b565b92508261274957612748612783565b5b828206905092915050565b7f4e487b7100000000000000000000000000000000000000000000000000000000600052601160045260246000fd5b7f4e487b7100000000000000000000000000000000000000000000000000000000600052601260045260246000fd5b7f4e487b7100000000000000000000000000000000000000000000000000000000600052602260045260246000fd5b7f4e487b7100000000000000000000000000000000000000000000000000000000600052604160045260246000fd5b6000601f19601f8301169050919050565b7f4552433732313a207472616e7366657220746f206e6f6e20455243373231526560008201527f63656976657220696d706c656d656e7465720000000000000000000000000000602082015250565b7f4552433732313a207472616e736665722066726f6d20696e636f72726563742060008201527f6f776e6572000000000000000000000000000000000000000000000000000000602082015250565b7f4552433732313a20746f6b656e20616c7265616479206d696e74656400000000600082015250565b7f4552433732313a207472616e7366657220746f20746865207a65726f2061646460008201527f7265737300000000000000000000000000000000000000000000000000000000602082015250565b7f4552433732313a20617070726f766520746f2063616c6c657200000000000000600082015250565b7f4552433732313a206f70657261746f7220717565727920666f72206e6f6e657860008201527f697374656e7420746f6b656e0000000000000000000000000000000000000000602082015250565b7f4552433732313a20617070726f76652063616c6c6572206973206e6f74206f7760008201527f6e6572206e6f7220617070726f76656420666f7220616c6c0000000000000000602082015250565b7f4552433732313a2062616c616e636520717565727920666f7220746865207a6560008201527f726f206164647265737300000000000000000000000000000000000000000000602082015250565b7f4552433732313a206f776e657220717565727920666f72206e6f6e657869737460008201527f656e7420746f6b656e0000000000000000000000000000000000000000000000602082015250565b7f45524337323155524953746f726167653a2055524920736574206f66206e6f6e60008201527f6578697374656e7420746f6b656e000000000000000000000000000000000000602082015250565b7f4552433732313a206d696e7420746f20746865207a65726f2061646472657373600082015250565b7f45524337323155524953746f726167653a2055524920717565727920666f722060008201527f6e6f6e6578697374656e7420746f6b656e000000000000000000000000000000602082015250565b7f4552433732313a20617070726f76656420717565727920666f72206e6f6e657860008201527f697374656e7420746f6b656e0000000000000000000000000000000000000000602082015250565b7f4552433732314d657461646174613a2055524920717565727920666f72206e6f60008201527f6e6578697374656e7420746f6b656e0000000000000000000000000000000000602082015250565b7f4552433732313a20617070726f76616c20746f2063757272656e74206f776e6560008201527f7200000000000000000000000000000000000000000000000000000000000000602082015250565b7f4e6f74206f776e65720000000000000000000000000000000000000000000000600082015250565b7f4552433732313a207472616e736665722063616c6c6572206973206e6f74206f60008201527f776e6572206e6f7220617070726f766564000000000000000000000000000000602082015250565b612cd1816125c1565b8114612cdc57600080fd5b50565b612ce8816125d3565b8114612cf357600080fd5b50565b612cff816125df565b8114612d0a57600080fd5b50565b612d168161262b565b8114612d2157600080fd5b5056fea2646970667358221220d235afa027e47e9f49e827a9493c295fc2bd7853ee5899e646575a0e8ee1a9b664736f6c63430008040033a26469706673582212208cd6b7263a8ef3907cafc80b9d99c6bc4437446ef0ab0363a7991d9fa01cfc4364736f6c63430008040033",
  "linkReferences": {},
  "deployedLinkReferences": {}
}