{
  "_format": "hh-sol-artifact-1",
  "contractName": "MarketPlace",
  "sourceName": "contracts/MarketPlace.sol",
  "abi": [
    {
      "inputs": [
        {
          "internalType": "uint256",
          "name": "_feePercent",
          "type": "uint256"
        }
      ],
      "stateMutability": "nonpayable",
      "type": "constructor"
    },
    {
      "anonymous": false,
      "inputs": [
        {
          "indexed": false,
          "internalType": "uint256",
          "name": "itemId",
          "type": "uint256"
        },
        {
          "indexed": true,
          "internalType": "address",
          "name": "nft",
          "type": "address"
        },
        {
          "indexed": false,
          "internalType": "uint256",
          "name": "tokenId",
          "type": "uint256"
        },
        {
          "indexed": false,
          "internalType": "uint256",
          "name": "price",
          "type": "uint256"
        },
        {
          "indexed": true,
          "internalType": "address",
          "name": "seller",
          "type": "address"
        },
        {
          "indexed": true,
          "internalType": "address",
          "name": "buyer",
          "type": "address"
        }
      ],
      "name": "bought",
      "type": "event"
    },
    {
      "anonymous": false,
      "inputs": [
        {
          "indexed": false,
          "internalType": "uint256",
          "name": "itemId",
          "type": "uint256"
        },
        {
          "indexed": true,
          "internalType": "address",
          "name": "nft",
          "type": "address"
        },
        {
          "indexed": false,
          "internalType": "uint256",
          "name": "tokenId",
          "type": "uint256"
        },
        {
          "indexed": false,
          "internalType": "uint256",
          "name": "price",
          "type": "uint256"
        },
        {
          "indexed": true,
          "internalType": "address",
          "name": "seller",
          "type": "address"
        }
      ],
      "name": "offered",
      "type": "event"
    },
    {
      "inputs": [],
      "name": "feeAccount",
      "outputs": [
        {
          "internalType": "address payable",
          "name": "",
          "type": "address"
        }
      ],
      "stateMutability": "view",
      "type": "function"
    },
    {
      "inputs": [],
      "name": "feePercent",
      "outputs": [
        {
          "internalType": "uint256",
          "name": "",
          "type": "uint256"
        }
      ],
      "stateMutability": "view",
      "type": "function"
    },
    {
      "inputs": [],
      "name": "getItemCount",
      "outputs": [
        {
          "internalType": "uint256",
          "name": "",
          "type": "uint256"
        }
      ],
      "stateMutability": "view",
      "type": "function"
    },
    {
      "inputs": [
        {
          "internalType": "uint256",
          "name": "_itemId",
          "type": "uint256"
        }
      ],
      "name": "getTotalPrice",
      "outputs": [
        {
          "internalType": "uint256",
          "name": "",
          "type": "uint256"
        }
      ],
      "stateMutability": "view",
      "type": "function"
    },
    {
      "inputs": [],
      "name": "itemCount",
      "outputs": [
        {
          "internalType": "uint256",
          "name": "",
          "type": "uint256"
        }
      ],
      "stateMutability": "view",
      "type": "function"
    },
    {
      "inputs": [
        {
          "internalType": "uint256",
          "name": "",
          "type": "uint256"
        }
      ],
      "name": "items",
      "outputs": [
        {
          "internalType": "uint256",
          "name": "itemId",
          "type": "uint256"
        },
        {
          "internalType": "contract IERC721",
          "name": "nft",
          "type": "address"
        },
        {
          "internalType": "uint256",
          "name": "tokenId",
          "type": "uint256"
        },
        {
          "internalType": "uint256",
          "name": "price",
          "type": "uint256"
        },
        {
          "internalType": "address payable",
          "name": "seller",
          "type": "address"
        },
        {
          "internalType": "bool",
          "name": "sold",
          "type": "bool"
        }
      ],
      "stateMutability": "view",
      "type": "function"
    },
    {
      "inputs": [
        {
          "internalType": "contract IERC721",
          "name": "_nft",
          "type": "address"
        },
        {
          "internalType": "uint256",
          "name": "_tokenId",
          "type": "uint256"
        },
        {
          "internalType": "uint256",
          "name": "_price",
          "type": "uint256"
        }
      ],
      "name": "makeItem",
      "outputs": [],
      "stateMutability": "nonpayable",
      "type": "function"
    },
    {
      "inputs": [
        {
          "internalType": "uint256",
          "name": "_itemId",
          "type": "uint256"
        }
      ],
      "name": "purchaseItem",
      "outputs": [],
      "stateMutability": "payable",
      "type": "function"
    }
  ],
  "bytecode": "0x60c060405234801561001057600080fd5b506040516111dd3803806111dd83398181016040528101906100329190610094565b60016000819055508060a081815250503373ffffffffffffffffffffffffffffffffffffffff1660808173ffffffffffffffffffffffffffffffffffffffff1660601b81525050506100de565b60008151905061008e816100c7565b92915050565b6000602082840312156100a657600080fd5b60006100b48482850161007f565b91505092915050565b6000819050919050565b6100d0816100bd565b81146100db57600080fd5b50565b60805160601c60a0516110c96101146000396000818161022601526102d70152600081816101f201526104fd01526110c96000f3fe60806040526004361061007b5760003560e01c8063bfb231d21161004e578063bfb231d21461012c578063ca7dd3751461016e578063d38ea5bf146101ab578063fa00afc7146101c75761007b565b806365e17c9d146100805780636bfb0d01146100ab5780637749cf23146100d65780637fd6f15c14610101575b600080fd5b34801561008c57600080fd5b506100956101f0565b6040516100a29190610b70565b60405180910390f35b3480156100b757600080fd5b506100c0610214565b6040516100cd9190610c62565b60405180910390f35b3480156100e257600080fd5b506100eb61021a565b6040516100f89190610c62565b60405180910390f35b34801561010d57600080fd5b50610116610224565b6040516101239190610c62565b60405180910390f35b34801561013857600080fd5b50610153600480360381019061014e9190610a4d565b610248565b60405161016596959493929190610c7d565b60405180910390f35b34801561017a57600080fd5b5061019560048036038101906101909190610a4d565b6102d1565b6040516101a29190610c62565b60405180910390f35b6101c560048036038101906101c09190610a4d565b610334565b005b3480156101d357600080fd5b506101ee60048036038101906101e991906109fe565b610702565b005b7f000000000000000000000000000000000000000000000000000000000000000081565b60015481565b6000600154905090565b7f000000000000000000000000000000000000000000000000000000000000000081565b60026020528060005260406000206000915090508060000154908060010160009054906101000a900473ffffffffffffffffffffffffffffffffffffffff16908060020154908060030154908060040160009054906101000a900473ffffffffffffffffffffffffffffffffffffffff16908060040160149054906101000a900460ff16905086565b600060647f000000000000000000000000000000000000000000000000000000000000000060646103029190610d26565b60026000858152602001908152602001600020600301546103239190610dad565b61032d9190610d7c565b9050919050565b6002600054141561037a576040517f08c379a000000000000000000000000000000000000000000000000000000000815260040161037190610c42565b60405180910390fd5b6002600081905550600061038d826102d1565b905060006002600084815260200190815260200160002090506000831180156103b857506001548311155b6103f7576040517f08c379a00000000000000000000000000000000000000000000000000000000081526004016103ee90610c02565b60405180910390fd5b8134101561043a576040517f08c379a000000000000000000000000000000000000000000000000000000000815260040161043190610c22565b60405180910390fd5b8060040160149054906101000a900460ff161561048c576040517f08c379a000000000000000000000000000000000000000000000000000000000815260040161048390610bc2565b60405180910390fd5b8060040160009054906101000a900473ffffffffffffffffffffffffffffffffffffffff1673ffffffffffffffffffffffffffffffffffffffff166108fc82600301549081150290604051600060405180830381858888f193505050501580156104fa573d6000803e3d6000fd5b507f000000000000000000000000000000000000000000000000000000000000000073ffffffffffffffffffffffffffffffffffffffff166108fc8260030154846105459190610e07565b9081150290604051600060405180830381858888f19350505050158015610570573d6000803e3d6000fd5b5060018160040160146101000a81548160ff0219169083151502179055508060010160009054906101000a900473ffffffffffffffffffffffffffffffffffffffff1673ffffffffffffffffffffffffffffffffffffffff166323b872dd303384600201546040518463ffffffff1660e01b81526004016105f393929190610b8b565b600060405180830381600087803b15801561060d57600080fd5b505af1158015610621573d6000803e3d6000fd5b505050503373ffffffffffffffffffffffffffffffffffffffff168160040160009054906101000a900473ffffffffffffffffffffffffffffffffffffffff1673ffffffffffffffffffffffffffffffffffffffff168260010160009054906101000a900473ffffffffffffffffffffffffffffffffffffffff1673ffffffffffffffffffffffffffffffffffffffff167f6408fe9f1e935404c51a07f5c5355f60253cbd8e74964851fdcc8156aaf2e29c86856002015486600301546040516106ed93929190610cde565b60405180910390a45050600160008190555050565b60026000541415610748576040517f08c379a000000000000000000000000000000000000000000000000000000000815260040161073f90610c42565b60405180910390fd5b600260008190555060008111610793576040517f08c379a000000000000000000000000000000000000000000000000000000000815260040161078a90610be2565b60405180910390fd5b600160008154809291906107a690610ecb565b91905055508273ffffffffffffffffffffffffffffffffffffffff166323b872dd3330856040518463ffffffff1660e01b81526004016107e893929190610b8b565b600060405180830381600087803b15801561080257600080fd5b505af1158015610816573d6000803e3d6000fd5b505050506040518060c0016040528060015481526020018473ffffffffffffffffffffffffffffffffffffffff1681526020018381526020018281526020013373ffffffffffffffffffffffffffffffffffffffff168152602001600015158152506002600060015481526020019081526020016000206000820151816000015560208201518160010160006101000a81548173ffffffffffffffffffffffffffffffffffffffff021916908373ffffffffffffffffffffffffffffffffffffffff160217905550604082015181600201556060820151816003015560808201518160040160006101000a81548173ffffffffffffffffffffffffffffffffffffffff021916908373ffffffffffffffffffffffffffffffffffffffff16021790555060a08201518160040160146101000a81548160ff0219169083151502179055509050503373ffffffffffffffffffffffffffffffffffffffff168373ffffffffffffffffffffffffffffffffffffffff167fdbac4bb85b8f64732592b4091517366a78dcf20ef7bbad3443eb8bcda4bd9d3d60015485856040516109bf93929190610cde565b60405180910390a36001600081905550505050565b6000813590506109e381611065565b92915050565b6000813590506109f88161107c565b92915050565b600080600060608486031215610a1357600080fd5b6000610a21868287016109d4565b9350506020610a32868287016109e9565b9250506040610a43868287016109e9565b9150509250925092565b600060208284031215610a5f57600080fd5b6000610a6d848285016109e9565b91505092915050565b610a7f81610e4d565b82525050565b610a8e81610e3b565b82525050565b610a9d81610e5f565b82525050565b610aac81610ea7565b82525050565b6000610abf601183610d15565b9150610aca82610f72565b602082019050919050565b6000610ae2601f83610d15565b9150610aed82610f9b565b602082019050919050565b6000610b05601283610d15565b9150610b1082610fc4565b602082019050919050565b6000610b28603383610d15565b9150610b3382610fed565b604082019050919050565b6000610b4b601f83610d15565b9150610b568261103c565b602082019050919050565b610b6a81610e9d565b82525050565b6000602082019050610b856000830184610a76565b92915050565b6000606082019050610ba06000830186610a85565b610bad6020830185610a85565b610bba6040830184610b61565b949350505050565b60006020820190508181036000830152610bdb81610ab2565b9050919050565b60006020820190508181036000830152610bfb81610ad5565b9050919050565b60006020820190508181036000830152610c1b81610af8565b9050919050565b60006020820190508181036000830152610c3b81610b1b565b9050919050565b60006020820190508181036000830152610c5b81610b3e565b9050919050565b6000602082019050610c776000830184610b61565b92915050565b600060c082019050610c926000830189610b61565b610c9f6020830188610aa3565b610cac6040830187610b61565b610cb96060830186610b61565b610cc66080830185610a76565b610cd360a0830184610a94565b979650505050505050565b6000606082019050610cf36000830186610b61565b610d006020830185610b61565b610d0d6040830184610b61565b949350505050565b600082825260208201905092915050565b6000610d3182610e9d565b9150610d3c83610e9d565b9250827fffffffffffffffffffffffffffffffffffffffffffffffffffffffffffffffff03821115610d7157610d70610f14565b5b828201905092915050565b6000610d8782610e9d565b9150610d9283610e9d565b925082610da257610da1610f43565b5b828204905092915050565b6000610db882610e9d565b9150610dc383610e9d565b9250817fffffffffffffffffffffffffffffffffffffffffffffffffffffffffffffffff0483118215151615610dfc57610dfb610f14565b5b828202905092915050565b6000610e1282610e9d565b9150610e1d83610e9d565b925082821015610e3057610e2f610f14565b5b828203905092915050565b6000610e4682610e7d565b9050919050565b6000610e5882610e7d565b9050919050565b60008115159050919050565b6000610e7682610e3b565b9050919050565b600073ffffffffffffffffffffffffffffffffffffffff82169050919050565b6000819050919050565b6000610eb282610eb9565b9050919050565b6000610ec482610e7d565b9050919050565b6000610ed682610e9d565b91507fffffffffffffffffffffffffffffffffffffffffffffffffffffffffffffffff821415610f0957610f08610f14565b5b600182019050919050565b7f4e487b7100000000000000000000000000000000000000000000000000000000600052601160045260246000fd5b7f4e487b7100000000000000000000000000000000000000000000000000000000600052601260045260246000fd5b7f6974656d20616c726561647920736f6c64000000000000000000000000000000600082015250565b7f5072696365206d7573742062652067726561746572207468616e207a65726f00600082015250565b7f6974656d20646f65736e27742065786973740000000000000000000000000000600082015250565b7f4e6f7420656e6f75676820657468657220746f20636f766572206974656d207060008201527f7269636520616e64206d61726b65742066656500000000000000000000000000602082015250565b7f5265656e7472616e637947756172643a207265656e7472616e742063616c6c00600082015250565b61106e81610e6b565b811461107957600080fd5b50565b61108581610e9d565b811461109057600080fd5b5056fea2646970667358221220520f003477eec16149f8dba209fe9748c9478e6321b93bf5a5720681379d316164736f6c63430008040033",
  "linkReferences": {},
  "deployedLinkReferences": {}
}