{
  "_format": "hh-sol-artifact-1",
  "contractName": "NFTCONTRACT",
  "sourceName": "contracts/NftContract.sol",
  "abi": [
    {
      "inputs": [
        {
          "internalType": "string",
          "name": "_name",
          "type": "string"
        },
        {
          "internalType": "string",
          "name": "_symbol",
          "type": "string"
        },
        {
          "internalType": "address",
          "name": "_owner",
          "type": "address"
        }
      ],
      "stateMutability": "nonpayable",
      "type": "constructor"
    },
    {
      "anonymous": false,
      "inputs": [
        {
          "indexed": true,
          "internalType": "address",
          "name": "owner",
          "type": "address"
        },
        {
          "indexed": true,
          "internalType": "address",
          "name": "approved",
          "type": "address"
        },
        {
          "indexed": true,
          "internalType": "uint256",
          "name": "tokenId",
          "type": "uint256"
        }
      ],
      "name": "Approval",
      "type": "event"
    },
    {
      "anonymous": false,
      "inputs": [
        {
          "indexed": true,
          "internalType": "address",
          "name": "owner",
          "type": "address"
        },
        {
          "indexed": true,
          "internalType": "address",
          "name": "operator",
          "type": "address"
        },
        {
          "indexed": false,
          "internalType": "bool",
          "name": "approved",
          "type": "bool"
        }
      ],
      "name": "ApprovalForAll",
      "type": "event"
    },
    {
      "anonymous": false,
      "inputs": [
        {
          "indexed": true,
          "internalType": "address",
          "name": "from",
          "type": "address"
        },
        {
          "indexed": true,
          "internalType": "address",
          "name": "to",
          "type": "address"
        },
        {
          "indexed": true,
          "internalType": "uint256",
          "name": "tokenId",
          "type": "uint256"
        }
      ],
      "name": "Transfer",
      "type": "event"
    },
    {
      "inputs": [
        {
          "internalType": "address",
          "name": "to",
          "type": "address"
        },
        {
          "internalType": "uint256",
          "name": "tokenId",
          "type": "uint256"
        }
      ],
      "name": "approve",
      "outputs": [],
      "stateMutability": "nonpayable",
      "type": "function"
    },
    {
      "inputs": [
        {
          "internalType": "address",
          "name": "owner",
          "type": "address"
        }
      ],
      "name": "balanceOf",
      "outputs": [
        {
          "internalType": "uint256",
          "name": "",
          "type": "uint256"
        }
      ],
      "stateMutability": "view",
      "type": "function"
    },
    {
      "inputs": [
        {
          "internalType": "uint256",
          "name": "tokenId",
          "type": "uint256"
        }
      ],
      "name": "getApproved",
      "outputs": [
        {
          "internalType": "address",
          "name": "",
          "type": "address"
        }
      ],
      "stateMutability": "view",
      "type": "function"
    },
    {
      "inputs": [
        {
          "internalType": "address",
          "name": "owner",
          "type": "address"
        },
        {
          "internalType": "address",
          "name": "operator",
          "type": "address"
        }
      ],
      "name": "isApprovedForAll",
      "outputs": [
        {
          "internalType": "bool",
          "name": "",
          "type": "bool"
        }
      ],
      "stateMutability": "view",
      "type": "function"
    },
    {
      "inputs": [
        {
          "internalType": "string",
          "name": "_tokenURI",
          "type": "string"
        }
      ],
      "name": "mint",
      "outputs": [
        {
          "internalType": "uint256",
          "name": "",
          "type": "uint256"
        }
      ],
      "stateMutability": "nonpayable",
      "type": "function"
    },
    {
      "inputs": [],
      "name": "name",
      "outputs": [
        {
          "internalType": "string",
          "name": "",
          "type": "string"
        }
      ],
      "stateMutability": "view",
      "type": "function"
    },
    {
      "inputs": [],
      "name": "owner",
      "outputs": [
        {
          "internalType": "address",
          "name": "",
          "type": "address"
        }
      ],
      "stateMutability": "view",
      "type": "function"
    },
    {
      "inputs": [
        {
          "internalType": "uint256",
          "name": "tokenId",
          "type": "uint256"
        }
      ],
      "name": "ownerOf",
      "outputs": [
        {
          "internalType": "address",
          "name": "",
          "type": "address"
        }
      ],
      "stateMutability": "view",
      "type": "function"
    },
    {
      "inputs": [
        {
          "internalType": "uint256",
          "name": "_tokenId",
          "type": "uint256"
        },
        {
          "internalType": "uint256",
          "name": "_price",
          "type": "uint256"
        },
        {
          "internalType": "address payable",
          "name": "to",
          "type": "address"
        },
        {
          "internalType": "address",
          "name": "_ownerAcc",
          "type": "address"
        },
        {
          "internalType": "address",
          "name": "_reciever",
          "type": "address"
        }
      ],
      "name": "purchaseItem",
      "outputs": [],
      "stateMutability": "payable",
      "type": "function"
    },
    {
      "inputs": [
        {
          "internalType": "address",
          "name": "from",
          "type": "address"
        },
        {
          "internalType": "address",
          "name": "to",
          "type": "address"
        },
        {
          "internalType": "uint256",
          "name": "tokenId",
          "type": "uint256"
        }
      ],
      "name": "safeTransferFrom",
      "outputs": [],
      "stateMutability": "nonpayable",
      "type": "function"
    },
    {
      "inputs": [
        {
          "internalType": "address",
          "name": "from",
          "type": "address"
        },
        {
          "internalType": "address",
          "name": "to",
          "type": "address"
        },
        {
          "internalType": "uint256",
          "name": "tokenId",
          "type": "uint256"
        },
        {
          "internalType": "bytes",
          "name": "_data",
          "type": "bytes"
        }
      ],
      "name": "safeTransferFrom",
      "outputs": [],
      "stateMutability": "nonpayable",
      "type": "function"
    },
    {
      "inputs": [
        {
          "internalType": "address",
          "name": "operator",
          "type": "address"
        },
        {
          "internalType": "bool",
          "name": "approved",
          "type": "bool"
        }
      ],
      "name": "setApprovalForAll",
      "outputs": [],
      "stateMutability": "nonpayable",
      "type": "function"
    },
    {
      "inputs": [
        {
          "internalType": "bytes4",
          "name": "interfaceId",
          "type": "bytes4"
        }
      ],
      "name": "supportsInterface",
      "outputs": [
        {
          "internalType": "bool",
          "name": "",
          "type": "bool"
        }
      ],
      "stateMutability": "view",
      "type": "function"
    },
    {
      "inputs": [],
      "name": "symbol",
      "outputs": [
        {
          "internalType": "string",
          "name": "",
          "type": "string"
        }
      ],
      "stateMutability": "view",
      "type": "function"
    },
    {
      "inputs": [],
      "name": "tokenCount",
      "outputs": [
        {
          "internalType": "uint256",
          "name": "",
          "type": "uint256"
        }
      ],
      "stateMutability": "view",
      "type": "function"
    },
    {
      "inputs": [
        {
          "internalType": "uint256",
          "name": "tokenId",
          "type": "uint256"
        }
      ],
      "name": "tokenURI",
      "outputs": [
        {
          "internalType": "string",
          "name": "",
          "type": "string"
        }
      ],
      "stateMutability": "view",
      "type": "function"
    },
    {
      "inputs": [
        {
          "internalType": "address",
          "name": "from",
          "type": "address"
        },
        {
          "internalType": "address",
          "name": "to",
          "type": "address"
        },
        {
          "internalType": "uint256",
          "name": "tokenId",
          "type": "uint256"
        }
      ],
      "name": "transferFrom",
      "outputs": [],
      "stateMutability": "nonpayable",
      "type": "function"
    }
  ],
  "bytecode": "0x60806040523480156200001157600080fd5b50604051620035ab380380620035ab8339818101604052810190620000379190620001f0565b8282816000908051906020019062000051929190620000b7565b5080600190805190602001906200006a929190620000b7565b50505080600860006101000a81548173ffffffffffffffffffffffffffffffffffffffff021916908373ffffffffffffffffffffffffffffffffffffffff16021790555050505062000436565b828054620000c59062000341565b90600052602060002090601f016020900481019282620000e9576000855562000135565b82601f106200010457805160ff191683800117855562000135565b8280016001018555821562000135579182015b828111156200013457825182559160200191906001019062000117565b5b50905062000144919062000148565b5090565b5b808211156200016357600081600090555060010162000149565b5090565b60006200017e6200017884620002a1565b62000278565b9050828152602081018484840111156200019757600080fd5b620001a48482856200030b565b509392505050565b600081519050620001bd816200041c565b92915050565b600082601f830112620001d557600080fd5b8151620001e784826020860162000167565b91505092915050565b6000806000606084860312156200020657600080fd5b600084015167ffffffffffffffff8111156200022157600080fd5b6200022f86828701620001c3565b935050602084015167ffffffffffffffff8111156200024d57600080fd5b6200025b86828701620001c3565b92505060406200026e86828701620001ac565b9150509250925092565b60006200028462000297565b905062000292828262000377565b919050565b6000604051905090565b600067ffffffffffffffff821115620002bf57620002be620003dc565b5b620002ca826200040b565b9050602081019050919050565b6000620002e482620002eb565b9050919050565b600073ffffffffffffffffffffffffffffffffffffffff82169050919050565b60005b838110156200032b5780820151818401526020810190506200030e565b838111156200033b576000848401525b50505050565b600060028204905060018216806200035a57607f821691505b60208210811415620003715762000370620003ad565b5b50919050565b62000382826200040b565b810181811067ffffffffffffffff82111715620003a457620003a3620003dc565b5b80604052505050565b7f4e487b7100000000000000000000000000000000000000000000000000000000600052602260045260246000fd5b7f4e487b7100000000000000000000000000000000000000000000000000000000600052604160045260246000fd5b6000601f19601f8301169050919050565b6200042781620002d7565b81146200043357600080fd5b50565b61316580620004466000396000f3fe6080604052600436106100fe5760003560e01c806370a0823111610095578063a22cb46511610064578063a22cb4651461033a578063b88d4fde14610363578063c87b56dd1461038c578063d85d3d27146103c9578063e985e9c514610406576100fe565b806370a082311461027c5780638da5cb5b146102b957806395d89b41146102e45780639f181b5e1461030f576100fe565b806323b872dd116100d157806323b872dd146101d157806342842e0e146101fa5780636352211e146102235780636c66e0d314610260576100fe565b806301ffc9a71461010357806306fdde0314610140578063081812fc1461016b578063095ea7b3146101a8575b600080fd5b34801561010f57600080fd5b5061012a60048036038101906101259190611f6d565b610443565b6040516101379190612494565b60405180910390f35b34801561014c57600080fd5b50610155610525565b60405161016291906124af565b60405180910390f35b34801561017757600080fd5b50610192600480360381019061018d9190612000565b6105b7565b60405161019f919061242d565b60405180910390f35b3480156101b457600080fd5b506101cf60048036038101906101ca9190611f31565b61063c565b005b3480156101dd57600080fd5b506101f860048036038101906101f39190611e2b565b610754565b005b34801561020657600080fd5b50610221600480360381019061021c9190611e2b565b6107b4565b005b34801561022f57600080fd5b5061024a60048036038101906102459190612000565b6107d4565b604051610257919061242d565b60405180910390f35b61027a60048036038101906102759190612029565b610886565b005b34801561028857600080fd5b506102a3600480360381019061029e9190611dc6565b61099a565b6040516102b09190612731565b60405180910390f35b3480156102c557600080fd5b506102ce610a52565b6040516102db919061242d565b60405180910390f35b3480156102f057600080fd5b506102f9610a78565b60405161030691906124af565b60405180910390f35b34801561031b57600080fd5b50610324610b0a565b6040516103319190612731565b60405180910390f35b34801561034657600080fd5b50610361600480360381019061035c9190611ef5565b610b10565b005b34801561036f57600080fd5b5061038a60048036038101906103859190611e7a565b610b26565b005b34801561039857600080fd5b506103b360048036038101906103ae9190612000565b610b88565b6040516103c091906124af565b60405180910390f35b3480156103d557600080fd5b506103f060048036038101906103eb9190611fbf565b610cda565b6040516103fd9190612731565b60405180910390f35b34801561041257600080fd5b5061042d60048036038101906104289190611def565b610da6565b60405161043a9190612494565b60405180910390f35b60007f80ac58cd000000000000000000000000000000000000000000000000000000007bffffffffffffffffffffffffffffffffffffffffffffffffffffffff1916827bffffffffffffffffffffffffffffffffffffffffffffffffffffffff1916148061050e57507f5b5e139f000000000000000000000000000000000000000000000000000000007bffffffffffffffffffffffffffffffffffffffffffffffffffffffff1916827bffffffffffffffffffffffffffffffffffffffffffffffffffffffff1916145b8061051e575061051d82610e3a565b5b9050919050565b606060008054610534906129f3565b80601f0160208091040260200160405190810160405280929190818152602001828054610560906129f3565b80156105ad5780601f10610582576101008083540402835291602001916105ad565b820191906000526020600020905b81548152906001019060200180831161059057829003601f168201915b5050505050905090565b60006105c282610ea4565b610601576040517f08c379a00000000000000000000000000000000000000000000000000000000081526004016105f890612691565b60405180910390fd5b6004600083815260200190815260200160002060009054906101000a900473ffffffffffffffffffffffffffffffffffffffff169050919050565b6000610647826107d4565b90508073ffffffffffffffffffffffffffffffffffffffff168373ffffffffffffffffffffffffffffffffffffffff1614156106b8576040517f08c379a00000000000000000000000000000000000000000000000000000000081526004016106af906126d1565b60405180910390fd5b8073ffffffffffffffffffffffffffffffffffffffff166106d7610f10565b73ffffffffffffffffffffffffffffffffffffffff161480610706575061070581610700610f10565b610da6565b5b610745576040517f08c379a000000000000000000000000000000000000000000000000000000000815260040161073c906125b1565b60405180910390fd5b61074f8383610f18565b505050565b61076561075f610f10565b82610fd1565b6107a4576040517f08c379a000000000000000000000000000000000000000000000000000000000815260040161079b90612711565b60405180910390fd5b6107af8383836110af565b505050565b6107cf83838360405180602001604052806000815250610b26565b505050565b6000806002600084815260200190815260200160002060009054906101000a900473ffffffffffffffffffffffffffffffffffffffff169050600073ffffffffffffffffffffffffffffffffffffffff168173ffffffffffffffffffffffffffffffffffffffff16141561087d576040517f08c379a0000000000000000000000000000000000000000000000000000000008152600401610874906125f1565b60405180910390fd5b80915050919050565b60006005905060006064828761089c919061289d565b6108a6919061286c565b9050600081876108b69190612816565b9050600088116108fb576040517f08c379a00000000000000000000000000000000000000000000000000000000081526004016108f290612591565b60405180910390fd5b8034101561093e576040517f08c379a000000000000000000000000000000000000000000000000000000000815260040161093590612651565b60405180910390fd5b8573ffffffffffffffffffffffffffffffffffffffff166108fc829081150290604051600060405180830381858888f19350505050158015610984573d6000803e3d6000fd5b5061099085858a6107b4565b5050505050505050565b60008073ffffffffffffffffffffffffffffffffffffffff168273ffffffffffffffffffffffffffffffffffffffff161415610a0b576040517f08c379a0000000000000000000000000000000000000000000000000000000008152600401610a02906125d1565b60405180910390fd5b600360008373ffffffffffffffffffffffffffffffffffffffff1673ffffffffffffffffffffffffffffffffffffffff168152602001908152602001600020549050919050565b600860009054906101000a900473ffffffffffffffffffffffffffffffffffffffff1681565b606060018054610a87906129f3565b80601f0160208091040260200160405190810160405280929190818152602001828054610ab3906129f3565b8015610b005780601f10610ad557610100808354040283529160200191610b00565b820191906000526020600020905b815481529060010190602001808311610ae357829003601f168201915b5050505050905090565b60075481565b610b22610b1b610f10565b8383611316565b5050565b610b37610b31610f10565b83610fd1565b610b76576040517f08c379a0000000000000000000000000000000000000000000000000000000008152600401610b6d90612711565b60405180910390fd5b610b8284848484611483565b50505050565b6060610b9382610ea4565b610bd2576040517f08c379a0000000000000000000000000000000000000000000000000000000008152600401610bc990612671565b60405180910390fd5b6000600660008481526020019081526020016000208054610bf2906129f3565b80601f0160208091040260200160405190810160405280929190818152602001828054610c1e906129f3565b8015610c6b5780601f10610c4057610100808354040283529160200191610c6b565b820191906000526020600020905b815481529060010190602001808311610c4e57829003601f168201915b505050505090506000610c7c6114df565b9050600081511415610c92578192505050610cd5565b600082511115610cc7578082604051602001610caf929190612409565b60405160208183030381529060405292505050610cd5565b610cd0846114f6565b925050505b919050565b60003373ffffffffffffffffffffffffffffffffffffffff16600860009054906101000a900473ffffffffffffffffffffffffffffffffffffffff1673ffffffffffffffffffffffffffffffffffffffff1614610d6c576040517f08c379a0000000000000000000000000000000000000000000000000000000008152600401610d63906126f1565b60405180910390fd5b60076000815480929190610d7f90612a56565b9190505550610d903360075461159d565b610d9c600754836115bb565b6007549050919050565b6000600560008473ffffffffffffffffffffffffffffffffffffffff1673ffffffffffffffffffffffffffffffffffffffff16815260200190815260200160002060008373ffffffffffffffffffffffffffffffffffffffff1673ffffffffffffffffffffffffffffffffffffffff16815260200190815260200160002060009054906101000a900460ff16905092915050565b60007f01ffc9a7000000000000000000000000000000000000000000000000000000007bffffffffffffffffffffffffffffffffffffffffffffffffffffffff1916827bffffffffffffffffffffffffffffffffffffffffffffffffffffffff1916149050919050565b60008073ffffffffffffffffffffffffffffffffffffffff166002600084815260200190815260200160002060009054906101000a900473ffffffffffffffffffffffffffffffffffffffff1673ffffffffffffffffffffffffffffffffffffffff1614159050919050565b600033905090565b816004600083815260200190815260200160002060006101000a81548173ffffffffffffffffffffffffffffffffffffffff021916908373ffffffffffffffffffffffffffffffffffffffff160217905550808273ffffffffffffffffffffffffffffffffffffffff16610f8b836107d4565b73ffffffffffffffffffffffffffffffffffffffff167f8c5be1e5ebec7d5bd14f71427d1e84f3dd0314c0f7b2291e5b200ac8c7c3b92560405160405180910390a45050565b6000610fdc82610ea4565b61101b576040517f08c379a000000000000000000000000000000000000000000000000000000000815260040161101290612571565b60405180910390fd5b6000611026836107d4565b90508073ffffffffffffffffffffffffffffffffffffffff168473ffffffffffffffffffffffffffffffffffffffff16148061109557508373ffffffffffffffffffffffffffffffffffffffff1661107d846105b7565b73ffffffffffffffffffffffffffffffffffffffff16145b806110a657506110a58185610da6565b5b91505092915050565b8273ffffffffffffffffffffffffffffffffffffffff166110cf826107d4565b73ffffffffffffffffffffffffffffffffffffffff1614611125576040517f08c379a000000000000000000000000000000000000000000000000000000000815260040161111c906124f1565b60405180910390fd5b600073ffffffffffffffffffffffffffffffffffffffff168273ffffffffffffffffffffffffffffffffffffffff161415611195576040517f08c379a000000000000000000000000000000000000000000000000000000000815260040161118c90612531565b60405180910390fd5b6111a083838361162f565b6111ab600082610f18565b6001600360008573ffffffffffffffffffffffffffffffffffffffff1673ffffffffffffffffffffffffffffffffffffffff16815260200190815260200160002060008282546111fb91906128f7565b925050819055506001600360008473ffffffffffffffffffffffffffffffffffffffff1673ffffffffffffffffffffffffffffffffffffffff16815260200190815260200160002060008282546112529190612816565b92505081905550816002600083815260200190815260200160002060006101000a81548173ffffffffffffffffffffffffffffffffffffffff021916908373ffffffffffffffffffffffffffffffffffffffff160217905550808273ffffffffffffffffffffffffffffffffffffffff168473ffffffffffffffffffffffffffffffffffffffff167fddf252ad1be2c89b69c2b068fc378daa952ba7f163c4a11628f55a4df523b3ef60405160405180910390a4611311838383611634565b505050565b8173ffffffffffffffffffffffffffffffffffffffff168373ffffffffffffffffffffffffffffffffffffffff161415611385576040517f08c379a000000000000000000000000000000000000000000000000000000000815260040161137c90612551565b60405180910390fd5b80600560008573ffffffffffffffffffffffffffffffffffffffff1673ffffffffffffffffffffffffffffffffffffffff16815260200190815260200160002060008473ffffffffffffffffffffffffffffffffffffffff1673ffffffffffffffffffffffffffffffffffffffff16815260200190815260200160002060006101000a81548160ff0219169083151502179055508173ffffffffffffffffffffffffffffffffffffffff168373ffffffffffffffffffffffffffffffffffffffff167f17307eab39ab6107e8899845ad3d59bd9653f200f220920489ca2b5937696c31836040516114769190612494565b60405180910390a3505050565b61148e8484846110af565b61149a84848484611639565b6114d9576040517f08c379a00000000000000000000000000000000000000000000000000000000081526004016114d0906124d1565b60405180910390fd5b50505050565b606060405180602001604052806000815250905090565b606061150182610ea4565b611540576040517f08c379a0000000000000000000000000000000000000000000000000000000008152600401611537906126b1565b60405180910390fd5b600061154a6114df565b9050600081511161156a5760405180602001604052806000815250611595565b80611574846117d0565b604051602001611585929190612409565b6040516020818303038152906040525b915050919050565b6115b782826040518060200160405280600081525061197d565b5050565b6115c482610ea4565b611603576040517f08c379a00000000000000000000000000000000000000000000000000000000081526004016115fa90612611565b60405180910390fd5b8060066000848152602001908152602001600020908051906020019061162a929190611bd5565b505050565b505050565b505050565b600061165a8473ffffffffffffffffffffffffffffffffffffffff166119d8565b156117c3578373ffffffffffffffffffffffffffffffffffffffff1663150b7a02611683610f10565b8786866040518563ffffffff1660e01b81526004016116a59493929190612448565b602060405180830381600087803b1580156116bf57600080fd5b505af19250505080156116f057506040513d601f19601f820116820180604052508101906116ed9190611f96565b60015b611773573d8060008114611720576040519150601f19603f3d011682016040523d82523d6000602084013e611725565b606091505b5060008151141561176b576040517f08c379a0000000000000000000000000000000000000000000000000000000008152600401611762906124d1565b60405180910390fd5b805181602001fd5b63150b7a0260e01b7bffffffffffffffffffffffffffffffffffffffffffffffffffffffff1916817bffffffffffffffffffffffffffffffffffffffffffffffffffffffff1916149150506117c8565b600190505b949350505050565b60606000821415611818576040518060400160405280600181526020017f30000000000000000000000000000000000000000000000000000000000000008152509050611978565b600082905060005b6000821461184a57808061183390612a56565b915050600a82611843919061286c565b9150611820565b60008167ffffffffffffffff81111561188c577f4e487b7100000000000000000000000000000000000000000000000000000000600052604160045260246000fd5b6040519080825280601f01601f1916602001820160405280156118be5781602001600182028036833780820191505090505b5090505b60008514611971576001826118d791906128f7565b9150600a856118e69190612a9f565b60306118f29190612816565b60f81b81838151811061192e577f4e487b7100000000000000000000000000000000000000000000000000000000600052603260045260246000fd5b60200101907effffffffffffffffffffffffffffffffffffffffffffffffffffffffffffff1916908160001a905350600a8561196a919061286c565b94506118c2565b8093505050505b919050565b61198783836119fb565b6119946000848484611639565b6119d3576040517f08c379a00000000000000000000000000000000000000000000000000000000081526004016119ca906124d1565b60405180910390fd5b505050565b6000808273ffffffffffffffffffffffffffffffffffffffff163b119050919050565b600073ffffffffffffffffffffffffffffffffffffffff168273ffffffffffffffffffffffffffffffffffffffff161415611a6b576040517f08c379a0000000000000000000000000000000000000000000000000000000008152600401611a6290612631565b60405180910390fd5b611a7481610ea4565b15611ab4576040517f08c379a0000000000000000000000000000000000000000000000000000000008152600401611aab90612511565b60405180910390fd5b611ac06000838361162f565b6001600360008473ffffffffffffffffffffffffffffffffffffffff1673ffffffffffffffffffffffffffffffffffffffff1681526020019081526020016000206000828254611b109190612816565b92505081905550816002600083815260200190815260200160002060006101000a81548173ffffffffffffffffffffffffffffffffffffffff021916908373ffffffffffffffffffffffffffffffffffffffff160217905550808273ffffffffffffffffffffffffffffffffffffffff16600073ffffffffffffffffffffffffffffffffffffffff167fddf252ad1be2c89b69c2b068fc378daa952ba7f163c4a11628f55a4df523b3ef60405160405180910390a4611bd160008383611634565b5050565b828054611be1906129f3565b90600052602060002090601f016020900481019282611c035760008555611c4a565b82601f10611c1c57805160ff1916838001178555611c4a565b82800160010185558215611c4a579182015b82811115611c49578251825591602001919060010190611c2e565b5b509050611c579190611c5b565b5090565b5b80821115611c74576000816000905550600101611c5c565b5090565b6000611c8b611c8684612771565b61274c565b905082815260208101848484011115611ca357600080fd5b611cae8482856129b1565b509392505050565b6000611cc9611cc4846127a2565b61274c565b905082815260208101848484011115611ce157600080fd5b611cec8482856129b1565b509392505050565b600081359050611d03816130bc565b92915050565b600081359050611d18816130d3565b92915050565b600081359050611d2d816130ea565b92915050565b600081359050611d4281613101565b92915050565b600081519050611d5781613101565b92915050565b600082601f830112611d6e57600080fd5b8135611d7e848260208601611c78565b91505092915050565b600082601f830112611d9857600080fd5b8135611da8848260208601611cb6565b91505092915050565b600081359050611dc081613118565b92915050565b600060208284031215611dd857600080fd5b6000611de684828501611cf4565b91505092915050565b60008060408385031215611e0257600080fd5b6000611e1085828601611cf4565b9250506020611e2185828601611cf4565b9150509250929050565b600080600060608486031215611e4057600080fd5b6000611e4e86828701611cf4565b9350506020611e5f86828701611cf4565b9250506040611e7086828701611db1565b9150509250925092565b60008060008060808587031215611e9057600080fd5b6000611e9e87828801611cf4565b9450506020611eaf87828801611cf4565b9350506040611ec087828801611db1565b925050606085013567ffffffffffffffff811115611edd57600080fd5b611ee987828801611d5d565b91505092959194509250565b60008060408385031215611f0857600080fd5b6000611f1685828601611cf4565b9250506020611f2785828601611d1e565b9150509250929050565b60008060408385031215611f4457600080fd5b6000611f5285828601611cf4565b9250506020611f6385828601611db1565b9150509250929050565b600060208284031215611f7f57600080fd5b6000611f8d84828501611d33565b91505092915050565b600060208284031215611fa857600080fd5b6000611fb684828501611d48565b91505092915050565b600060208284031215611fd157600080fd5b600082013567ffffffffffffffff811115611feb57600080fd5b611ff784828501611d87565b91505092915050565b60006020828403121561201257600080fd5b600061202084828501611db1565b91505092915050565b600080600080600060a0868803121561204157600080fd5b600061204f88828901611db1565b955050602061206088828901611db1565b945050604061207188828901611d09565b935050606061208288828901611cf4565b925050608061209388828901611cf4565b9150509295509295909350565b6120a98161292b565b82525050565b6120b88161294f565b82525050565b60006120c9826127d3565b6120d381856127e9565b93506120e38185602086016129c0565b6120ec81612b8c565b840191505092915050565b6000612102826127de565b61210c81856127fa565b935061211c8185602086016129c0565b61212581612b8c565b840191505092915050565b600061213b826127de565b612145818561280b565b93506121558185602086016129c0565b80840191505092915050565b600061216e6032836127fa565b915061217982612b9d565b604082019050919050565b60006121916025836127fa565b915061219c82612bec565b604082019050919050565b60006121b4601c836127fa565b91506121bf82612c3b565b602082019050919050565b60006121d76024836127fa565b91506121e282612c64565b604082019050919050565b60006121fa6019836127fa565b915061220582612cb3565b602082019050919050565b600061221d602c836127fa565b915061222882612cdc565b604082019050919050565b60006122406012836127fa565b915061224b82612d2b565b602082019050919050565b60006122636038836127fa565b915061226e82612d54565b604082019050919050565b6000612286602a836127fa565b915061229182612da3565b604082019050919050565b60006122a96029836127fa565b91506122b482612df2565b604082019050919050565b60006122cc602e836127fa565b91506122d782612e41565b604082019050919050565b60006122ef6020836127fa565b91506122fa82612e90565b602082019050919050565b60006123126033836127fa565b915061231d82612eb9565b604082019050919050565b60006123356031836127fa565b915061234082612f08565b604082019050919050565b6000612358602c836127fa565b915061236382612f57565b604082019050919050565b600061237b602f836127fa565b915061238682612fa6565b604082019050919050565b600061239e6021836127fa565b91506123a982612ff5565b604082019050919050565b60006123c16009836127fa565b91506123cc82613044565b602082019050919050565b60006123e46031836127fa565b91506123ef8261306d565b604082019050919050565b612403816129a7565b82525050565b60006124158285612130565b91506124218284612130565b91508190509392505050565b600060208201905061244260008301846120a0565b92915050565b600060808201905061245d60008301876120a0565b61246a60208301866120a0565b61247760408301856123fa565b818103606083015261248981846120be565b905095945050505050565b60006020820190506124a960008301846120af565b92915050565b600060208201905081810360008301526124c981846120f7565b905092915050565b600060208201905081810360008301526124ea81612161565b9050919050565b6000602082019050818103600083015261250a81612184565b9050919050565b6000602082019050818103600083015261252a816121a7565b9050919050565b6000602082019050818103600083015261254a816121ca565b9050919050565b6000602082019050818103600083015261256a816121ed565b9050919050565b6000602082019050818103600083015261258a81612210565b9050919050565b600060208201905081810360008301526125aa81612233565b9050919050565b600060208201905081810360008301526125ca81612256565b9050919050565b600060208201905081810360008301526125ea81612279565b9050919050565b6000602082019050818103600083015261260a8161229c565b9050919050565b6000602082019050818103600083015261262a816122bf565b9050919050565b6000602082019050818103600083015261264a816122e2565b9050919050565b6000602082019050818103600083015261266a81612305565b9050919050565b6000602082019050818103600083015261268a81612328565b9050919050565b600060208201905081810360008301526126aa8161234b565b9050919050565b600060208201905081810360008301526126ca8161236e565b9050919050565b600060208201905081810360008301526126ea81612391565b9050919050565b6000602082019050818103600083015261270a816123b4565b9050919050565b6000602082019050818103600083015261272a816123d7565b9050919050565b600060208201905061274660008301846123fa565b92915050565b6000612756612767565b90506127628282612a25565b919050565b6000604051905090565b600067ffffffffffffffff82111561278c5761278b612b5d565b5b61279582612b8c565b9050602081019050919050565b600067ffffffffffffffff8211156127bd576127bc612b5d565b5b6127c682612b8c565b9050602081019050919050565b600081519050919050565b600081519050919050565b600082825260208201905092915050565b600082825260208201905092915050565b600081905092915050565b6000612821826129a7565b915061282c836129a7565b9250827fffffffffffffffffffffffffffffffffffffffffffffffffffffffffffffffff0382111561286157612860612ad0565b5b828201905092915050565b6000612877826129a7565b9150612882836129a7565b92508261289257612891612aff565b5b828204905092915050565b60006128a8826129a7565b91506128b3836129a7565b9250817fffffffffffffffffffffffffffffffffffffffffffffffffffffffffffffffff04831182151516156128ec576128eb612ad0565b5b828202905092915050565b6000612902826129a7565b915061290d836129a7565b9250828210156129205761291f612ad0565b5b828203905092915050565b600061293682612987565b9050919050565b600061294882612987565b9050919050565b60008115159050919050565b60007fffffffff0000000000000000000000000000000000000000000000000000000082169050919050565b600073ffffffffffffffffffffffffffffffffffffffff82169050919050565b6000819050919050565b82818337600083830152505050565b60005b838110156129de5780820151818401526020810190506129c3565b838111156129ed576000848401525b50505050565b60006002820490506001821680612a0b57607f821691505b60208210811415612a1f57612a1e612b2e565b5b50919050565b612a2e82612b8c565b810181811067ffffffffffffffff82111715612a4d57612a4c612b5d565b5b80604052505050565b6000612a61826129a7565b91507fffffffffffffffffffffffffffffffffffffffffffffffffffffffffffffffff821415612a9457612a93612ad0565b5b600182019050919050565b6000612aaa826129a7565b9150612ab5836129a7565b925082612ac557612ac4612aff565b5b828206905092915050565b7f4e487b7100000000000000000000000000000000000000000000000000000000600052601160045260246000fd5b7f4e487b7100000000000000000000000000000000000000000000000000000000600052601260045260246000fd5b7f4e487b7100000000000000000000000000000000000000000000000000000000600052602260045260246000fd5b7f4e487b7100000000000000000000000000000000000000000000000000000000600052604160045260246000fd5b6000601f19601f8301169050919050565b7f4552433732313a207472616e7366657220746f206e6f6e20455243373231526560008201527f63656976657220696d706c656d656e7465720000000000000000000000000000602082015250565b7f4552433732313a207472616e736665722066726f6d20696e636f72726563742060008201527f6f776e6572000000000000000000000000000000000000000000000000000000602082015250565b7f4552433732313a20746f6b656e20616c7265616479206d696e74656400000000600082015250565b7f4552433732313a207472616e7366657220746f20746865207a65726f2061646460008201527f7265737300000000000000000000000000000000000000000000000000000000602082015250565b7f4552433732313a20617070726f766520746f2063616c6c657200000000000000600082015250565b7f4552433732313a206f70657261746f7220717565727920666f72206e6f6e657860008201527f697374656e7420746f6b656e0000000000000000000000000000000000000000602082015250565b7f6974656d20646f65736e27742065786973740000000000000000000000000000600082015250565b7f4552433732313a20617070726f76652063616c6c6572206973206e6f74206f7760008201527f6e6572206e6f7220617070726f76656420666f7220616c6c0000000000000000602082015250565b7f4552433732313a2062616c616e636520717565727920666f7220746865207a6560008201527f726f206164647265737300000000000000000000000000000000000000000000602082015250565b7f4552433732313a206f776e657220717565727920666f72206e6f6e657869737460008201527f656e7420746f6b656e0000000000000000000000000000000000000000000000602082015250565b7f45524337323155524953746f726167653a2055524920736574206f66206e6f6e60008201527f6578697374656e7420746f6b656e000000000000000000000000000000000000602082015250565b7f4552433732313a206d696e7420746f20746865207a65726f2061646472657373600082015250565b7f4e6f7420656e6f75676820657468657220746f20636f766572206974656d207060008201527f7269636520616e64206d61726b65742066656500000000000000000000000000602082015250565b7f45524337323155524953746f726167653a2055524920717565727920666f722060008201527f6e6f6e6578697374656e7420746f6b656e000000000000000000000000000000602082015250565b7f4552433732313a20617070726f76656420717565727920666f72206e6f6e657860008201527f697374656e7420746f6b656e0000000000000000000000000000000000000000602082015250565b7f4552433732314d657461646174613a2055524920717565727920666f72206e6f60008201527f6e6578697374656e7420746f6b656e0000000000000000000000000000000000602082015250565b7f4552433732313a20617070726f76616c20746f2063757272656e74206f776e6560008201527f7200000000000000000000000000000000000000000000000000000000000000602082015250565b7f4e6f74206f776e65720000000000000000000000000000000000000000000000600082015250565b7f4552433732313a207472616e736665722063616c6c6572206973206e6f74206f60008201527f776e6572206e6f7220617070726f766564000000000000000000000000000000602082015250565b6130c58161292b565b81146130d057600080fd5b50565b6130dc8161293d565b81146130e757600080fd5b50565b6130f38161294f565b81146130fe57600080fd5b50565b61310a8161295b565b811461311557600080fd5b50565b613121816129a7565b811461312c57600080fd5b5056fea2646970667358221220c15c4ffbd43689274a86c9bab82f1764fdde0a337e3115a8dd035a149ae3262964736f6c63430008040033",
  "linkReferences": {},
  "deployedLinkReferences": {}
}