{
  "_format": "hh-sol-artifact-1",
  "contractName": "NFTCONTRACT",
  "sourceName": "contracts/NftContract.sol",
  "abi": [
    {
      "inputs": [
        {
          "internalType": "string",
          "name": "_name",
          "type": "string"
        },
        {
          "internalType": "string",
          "name": "_symbol",
          "type": "string"
        },
        {
          "internalType": "address",
          "name": "_owner",
          "type": "address"
        }
      ],
      "stateMutability": "nonpayable",
      "type": "constructor"
    },
    {
      "anonymous": false,
      "inputs": [
        {
          "indexed": true,
          "internalType": "address",
          "name": "owner",
          "type": "address"
        },
        {
          "indexed": true,
          "internalType": "address",
          "name": "approved",
          "type": "address"
        },
        {
          "indexed": true,
          "internalType": "uint256",
          "name": "tokenId",
          "type": "uint256"
        }
      ],
      "name": "Approval",
      "type": "event"
    },
    {
      "anonymous": false,
      "inputs": [
        {
          "indexed": true,
          "internalType": "address",
          "name": "owner",
          "type": "address"
        },
        {
          "indexed": true,
          "internalType": "address",
          "name": "operator",
          "type": "address"
        },
        {
          "indexed": false,
          "internalType": "bool",
          "name": "approved",
          "type": "bool"
        }
      ],
      "name": "ApprovalForAll",
      "type": "event"
    },
    {
      "anonymous": false,
      "inputs": [
        {
          "indexed": true,
          "internalType": "address",
          "name": "from",
          "type": "address"
        },
        {
          "indexed": true,
          "internalType": "address",
          "name": "to",
          "type": "address"
        },
        {
          "indexed": true,
          "internalType": "uint256",
          "name": "tokenId",
          "type": "uint256"
        }
      ],
      "name": "Transfer",
      "type": "event"
    },
    {
      "inputs": [
        {
          "internalType": "address",
          "name": "to",
          "type": "address"
        },
        {
          "internalType": "uint256",
          "name": "tokenId",
          "type": "uint256"
        }
      ],
      "name": "approve",
      "outputs": [],
      "stateMutability": "nonpayable",
      "type": "function"
    },
    {
      "inputs": [
        {
          "internalType": "address",
          "name": "owner",
          "type": "address"
        }
      ],
      "name": "balanceOf",
      "outputs": [
        {
          "internalType": "uint256",
          "name": "",
          "type": "uint256"
        }
      ],
      "stateMutability": "view",
      "type": "function"
    },
    {
      "inputs": [
        {
          "internalType": "uint256",
          "name": "tokenId",
          "type": "uint256"
        }
      ],
      "name": "getApproved",
      "outputs": [
        {
          "internalType": "address",
          "name": "",
          "type": "address"
        }
      ],
      "stateMutability": "view",
      "type": "function"
    },
    {
      "inputs": [
        {
          "internalType": "address",
          "name": "owner",
          "type": "address"
        },
        {
          "internalType": "address",
          "name": "operator",
          "type": "address"
        }
      ],
      "name": "isApprovedForAll",
      "outputs": [
        {
          "internalType": "bool",
          "name": "",
          "type": "bool"
        }
      ],
      "stateMutability": "view",
      "type": "function"
    },
    {
      "inputs": [
        {
          "internalType": "string",
          "name": "_tokenURI",
          "type": "string"
        }
      ],
      "name": "mint",
      "outputs": [
        {
          "internalType": "uint256",
          "name": "",
          "type": "uint256"
        }
      ],
      "stateMutability": "nonpayable",
      "type": "function"
    },
    {
      "inputs": [],
      "name": "name",
      "outputs": [
        {
          "internalType": "string",
          "name": "",
          "type": "string"
        }
      ],
      "stateMutability": "view",
      "type": "function"
    },
    {
      "inputs": [],
      "name": "owner",
      "outputs": [
        {
          "internalType": "address",
          "name": "",
          "type": "address"
        }
      ],
      "stateMutability": "view",
      "type": "function"
    },
    {
      "inputs": [
        {
          "internalType": "uint256",
          "name": "tokenId",
          "type": "uint256"
        }
      ],
      "name": "ownerOf",
      "outputs": [
        {
          "internalType": "address",
          "name": "",
          "type": "address"
        }
      ],
      "stateMutability": "view",
      "type": "function"
    },
    {
      "inputs": [
        {
          "internalType": "uint256",
          "name": "_tokenId",
          "type": "uint256"
        },
        {
          "internalType": "address payable",
          "name": "to",
          "type": "address"
        },
        {
          "internalType": "address payable",
          "name": "_ownerAcc",
          "type": "address"
        },
        {
          "internalType": "address",
          "name": "_reciever",
          "type": "address"
        }
      ],
      "name": "purchaseItem",
      "outputs": [],
      "stateMutability": "payable",
      "type": "function"
    },
    {
      "inputs": [
        {
          "internalType": "address",
          "name": "from",
          "type": "address"
        },
        {
          "internalType": "address",
          "name": "to",
          "type": "address"
        },
        {
          "internalType": "uint256",
          "name": "tokenId",
          "type": "uint256"
        }
      ],
      "name": "safeTransferFrom",
      "outputs": [],
      "stateMutability": "nonpayable",
      "type": "function"
    },
    {
      "inputs": [
        {
          "internalType": "address",
          "name": "from",
          "type": "address"
        },
        {
          "internalType": "address",
          "name": "to",
          "type": "address"
        },
        {
          "internalType": "uint256",
          "name": "tokenId",
          "type": "uint256"
        },
        {
          "internalType": "bytes",
          "name": "_data",
          "type": "bytes"
        }
      ],
      "name": "safeTransferFrom",
      "outputs": [],
      "stateMutability": "nonpayable",
      "type": "function"
    },
    {
      "inputs": [
        {
          "internalType": "address",
          "name": "operator",
          "type": "address"
        },
        {
          "internalType": "bool",
          "name": "approved",
          "type": "bool"
        }
      ],
      "name": "setApprovalForAll",
      "outputs": [],
      "stateMutability": "nonpayable",
      "type": "function"
    },
    {
      "inputs": [
        {
          "internalType": "bytes4",
          "name": "interfaceId",
          "type": "bytes4"
        }
      ],
      "name": "supportsInterface",
      "outputs": [
        {
          "internalType": "bool",
          "name": "",
          "type": "bool"
        }
      ],
      "stateMutability": "view",
      "type": "function"
    },
    {
      "inputs": [],
      "name": "symbol",
      "outputs": [
        {
          "internalType": "string",
          "name": "",
          "type": "string"
        }
      ],
      "stateMutability": "view",
      "type": "function"
    },
    {
      "inputs": [],
      "name": "tokenCount",
      "outputs": [
        {
          "internalType": "uint256",
          "name": "",
          "type": "uint256"
        }
      ],
      "stateMutability": "view",
      "type": "function"
    },
    {
      "inputs": [
        {
          "internalType": "uint256",
          "name": "tokenId",
          "type": "uint256"
        }
      ],
      "name": "tokenURI",
      "outputs": [
        {
          "internalType": "string",
          "name": "",
          "type": "string"
        }
      ],
      "stateMutability": "view",
      "type": "function"
    },
    {
      "inputs": [
        {
          "internalType": "address",
          "name": "from",
          "type": "address"
        },
        {
          "internalType": "address",
          "name": "to",
          "type": "address"
        },
        {
          "internalType": "uint256",
          "name": "tokenId",
          "type": "uint256"
        }
      ],
      "name": "transferFrom",
      "outputs": [],
      "stateMutability": "nonpayable",
      "type": "function"
    }
  ],
  "bytecode": "0x60806040523480156200001157600080fd5b50604051620035e3380380620035e38339818101604052810190620000379190620001f0565b8282816000908051906020019062000051929190620000b7565b5080600190805190602001906200006a929190620000b7565b50505080600860006101000a81548173ffffffffffffffffffffffffffffffffffffffff021916908373ffffffffffffffffffffffffffffffffffffffff16021790555050505062000436565b828054620000c59062000341565b90600052602060002090601f016020900481019282620000e9576000855562000135565b82601f106200010457805160ff191683800117855562000135565b8280016001018555821562000135579182015b828111156200013457825182559160200191906001019062000117565b5b50905062000144919062000148565b5090565b5b808211156200016357600081600090555060010162000149565b5090565b60006200017e6200017884620002a1565b62000278565b9050828152602081018484840111156200019757600080fd5b620001a48482856200030b565b509392505050565b600081519050620001bd816200041c565b92915050565b600082601f830112620001d557600080fd5b8151620001e784826020860162000167565b91505092915050565b6000806000606084860312156200020657600080fd5b600084015167ffffffffffffffff8111156200022157600080fd5b6200022f86828701620001c3565b935050602084015167ffffffffffffffff8111156200024d57600080fd5b6200025b86828701620001c3565b92505060406200026e86828701620001ac565b9150509250925092565b60006200028462000297565b905062000292828262000377565b919050565b6000604051905090565b600067ffffffffffffffff821115620002bf57620002be620003dc565b5b620002ca826200040b565b9050602081019050919050565b6000620002e482620002eb565b9050919050565b600073ffffffffffffffffffffffffffffffffffffffff82169050919050565b60005b838110156200032b5780820151818401526020810190506200030e565b838111156200033b576000848401525b50505050565b600060028204905060018216806200035a57607f821691505b60208210811415620003715762000370620003ad565b5b50919050565b62000382826200040b565b810181811067ffffffffffffffff82111715620003a457620003a3620003dc565b5b80604052505050565b7f4e487b7100000000000000000000000000000000000000000000000000000000600052602260045260246000fd5b7f4e487b7100000000000000000000000000000000000000000000000000000000600052604160045260246000fd5b6000601f19601f8301169050919050565b6200042781620002d7565b81146200043357600080fd5b50565b61319d80620004466000396000f3fe6080604052600436106100fe5760003560e01c80638da5cb5b11610095578063b88d4fde11610064578063b88d4fde14610347578063c87b56dd14610370578063d85d3d27146103ad578063dbd8db63146103ea578063e985e9c514610406576100fe565b80638da5cb5b1461029d57806395d89b41146102c85780639f181b5e146102f3578063a22cb4651461031e576100fe565b806323b872dd116100d157806323b872dd146101d157806342842e0e146101fa5780636352211e1461022357806370a0823114610260576100fe565b806301ffc9a71461010357806306fdde0314610140578063081812fc1461016b578063095ea7b3146101a8575b600080fd5b34801561010f57600080fd5b5061012a60048036038101906101259190611fb9565b610443565b60405161013791906124cc565b60405180910390f35b34801561014c57600080fd5b50610155610525565b60405161016291906124e7565b60405180910390f35b34801561017757600080fd5b50610192600480360381019061018d919061204c565b6105b7565b60405161019f9190612465565b60405180910390f35b3480156101b457600080fd5b506101cf60048036038101906101ca9190611f7d565b61063c565b005b3480156101dd57600080fd5b506101f860048036038101906101f39190611e77565b610754565b005b34801561020657600080fd5b50610221600480360381019061021c9190611e77565b6107b4565b005b34801561022f57600080fd5b5061024a6004803603810190610245919061204c565b6107d4565b6040516102579190612465565b60405180910390f35b34801561026c57600080fd5b5061028760048036038101906102829190611e12565b610886565b6040516102949190612769565b60405180910390f35b3480156102a957600080fd5b506102b261093e565b6040516102bf9190612465565b60405180910390f35b3480156102d457600080fd5b506102dd610964565b6040516102ea91906124e7565b60405180910390f35b3480156102ff57600080fd5b506103086109f6565b6040516103159190612769565b60405180910390f35b34801561032a57600080fd5b5061034560048036038101906103409190611f41565b6109fc565b005b34801561035357600080fd5b5061036e60048036038101906103699190611ec6565b610a12565b005b34801561037c57600080fd5b506103976004803603810190610392919061204c565b610a74565b6040516103a491906124e7565b60405180910390f35b3480156103b957600080fd5b506103d460048036038101906103cf919061200b565b610bc6565b6040516103e19190612769565b60405180910390f35b61040460048036038101906103ff9190612075565b610c92565b005b34801561041257600080fd5b5061042d60048036038101906104289190611e3b565b610df2565b60405161043a91906124cc565b60405180910390f35b60007f80ac58cd000000000000000000000000000000000000000000000000000000007bffffffffffffffffffffffffffffffffffffffffffffffffffffffff1916827bffffffffffffffffffffffffffffffffffffffffffffffffffffffff1916148061050e57507f5b5e139f000000000000000000000000000000000000000000000000000000007bffffffffffffffffffffffffffffffffffffffffffffffffffffffff1916827bffffffffffffffffffffffffffffffffffffffffffffffffffffffff1916145b8061051e575061051d82610e86565b5b9050919050565b60606000805461053490612a2b565b80601f016020809104026020016040519081016040528092919081815260200182805461056090612a2b565b80156105ad5780601f10610582576101008083540402835291602001916105ad565b820191906000526020600020905b81548152906001019060200180831161059057829003601f168201915b5050505050905090565b60006105c282610ef0565b610601576040517f08c379a00000000000000000000000000000000000000000000000000000000081526004016105f8906126c9565b60405180910390fd5b6004600083815260200190815260200160002060009054906101000a900473ffffffffffffffffffffffffffffffffffffffff169050919050565b6000610647826107d4565b90508073ffffffffffffffffffffffffffffffffffffffff168373ffffffffffffffffffffffffffffffffffffffff1614156106b8576040517f08c379a00000000000000000000000000000000000000000000000000000000081526004016106af90612709565b60405180910390fd5b8073ffffffffffffffffffffffffffffffffffffffff166106d7610f5c565b73ffffffffffffffffffffffffffffffffffffffff161480610706575061070581610700610f5c565b610df2565b5b610745576040517f08c379a000000000000000000000000000000000000000000000000000000000815260040161073c906125e9565b60405180910390fd5b61074f8383610f64565b505050565b61076561075f610f5c565b8261101d565b6107a4576040517f08c379a000000000000000000000000000000000000000000000000000000000815260040161079b90612749565b60405180910390fd5b6107af8383836110fb565b505050565b6107cf83838360405180602001604052806000815250610a12565b505050565b6000806002600084815260200190815260200160002060009054906101000a900473ffffffffffffffffffffffffffffffffffffffff169050600073ffffffffffffffffffffffffffffffffffffffff168173ffffffffffffffffffffffffffffffffffffffff16141561087d576040517f08c379a000000000000000000000000000000000000000000000000000000000815260040161087490612629565b60405180910390fd5b80915050919050565b60008073ffffffffffffffffffffffffffffffffffffffff168273ffffffffffffffffffffffffffffffffffffffff1614156108f7576040517f08c379a00000000000000000000000000000000000000000000000000000000081526004016108ee90612609565b60405180910390fd5b600360008373ffffffffffffffffffffffffffffffffffffffff1673ffffffffffffffffffffffffffffffffffffffff168152602001908152602001600020549050919050565b600860009054906101000a900473ffffffffffffffffffffffffffffffffffffffff1681565b60606001805461097390612a2b565b80601f016020809104026020016040519081016040528092919081815260200182805461099f90612a2b565b80156109ec5780601f106109c1576101008083540402835291602001916109ec565b820191906000526020600020905b8154815290600101906020018083116109cf57829003601f168201915b5050505050905090565b60075481565b610a0e610a07610f5c565b8383611362565b5050565b610a23610a1d610f5c565b8361101d565b610a62576040517f08c379a0000000000000000000000000000000000000000000000000000000008152600401610a5990612749565b60405180910390fd5b610a6e848484846114cf565b50505050565b6060610a7f82610ef0565b610abe576040517f08c379a0000000000000000000000000000000000000000000000000000000008152600401610ab5906126a9565b60405180910390fd5b6000600660008481526020019081526020016000208054610ade90612a2b565b80601f0160208091040260200160405190810160405280929190818152602001828054610b0a90612a2b565b8015610b575780601f10610b2c57610100808354040283529160200191610b57565b820191906000526020600020905b815481529060010190602001808311610b3a57829003601f168201915b505050505090506000610b6861152b565b9050600081511415610b7e578192505050610bc1565b600082511115610bb3578082604051602001610b9b929190612441565b60405160208183030381529060405292505050610bc1565b610bbc84611542565b925050505b919050565b60003373ffffffffffffffffffffffffffffffffffffffff16600860009054906101000a900473ffffffffffffffffffffffffffffffffffffffff1673ffffffffffffffffffffffffffffffffffffffff1614610c58576040517f08c379a0000000000000000000000000000000000000000000000000000000008152600401610c4f90612729565b60405180910390fd5b60076000815480929190610c6b90612a8e565b9190505550610c7c336007546115e9565b610c8860075483611607565b6007549050919050565b6000600590506000349050600060648383610cad91906128d5565b610cb791906128a4565b905060008183610cc7919061284e565b905060008811610d0c576040517f08c379a0000000000000000000000000000000000000000000000000000000008152600401610d03906125c9565b60405180910390fd5b80341015610d4f576040517f08c379a0000000000000000000000000000000000000000000000000000000008152600401610d4690612689565b60405180910390fd5b8573ffffffffffffffffffffffffffffffffffffffff166108fc849081150290604051600060405180830381858888f19350505050158015610d95573d6000803e3d6000fd5b508673ffffffffffffffffffffffffffffffffffffffff166108fc839081150290604051600060405180830381858888f19350505050158015610ddc573d6000803e3d6000fd5b50610de886868a6107b4565b5050505050505050565b6000600560008473ffffffffffffffffffffffffffffffffffffffff1673ffffffffffffffffffffffffffffffffffffffff16815260200190815260200160002060008373ffffffffffffffffffffffffffffffffffffffff1673ffffffffffffffffffffffffffffffffffffffff16815260200190815260200160002060009054906101000a900460ff16905092915050565b60007f01ffc9a7000000000000000000000000000000000000000000000000000000007bffffffffffffffffffffffffffffffffffffffffffffffffffffffff1916827bffffffffffffffffffffffffffffffffffffffffffffffffffffffff1916149050919050565b60008073ffffffffffffffffffffffffffffffffffffffff166002600084815260200190815260200160002060009054906101000a900473ffffffffffffffffffffffffffffffffffffffff1673ffffffffffffffffffffffffffffffffffffffff1614159050919050565b600033905090565b816004600083815260200190815260200160002060006101000a81548173ffffffffffffffffffffffffffffffffffffffff021916908373ffffffffffffffffffffffffffffffffffffffff160217905550808273ffffffffffffffffffffffffffffffffffffffff16610fd7836107d4565b73ffffffffffffffffffffffffffffffffffffffff167f8c5be1e5ebec7d5bd14f71427d1e84f3dd0314c0f7b2291e5b200ac8c7c3b92560405160405180910390a45050565b600061102882610ef0565b611067576040517f08c379a000000000000000000000000000000000000000000000000000000000815260040161105e906125a9565b60405180910390fd5b6000611072836107d4565b90508073ffffffffffffffffffffffffffffffffffffffff168473ffffffffffffffffffffffffffffffffffffffff1614806110e157508373ffffffffffffffffffffffffffffffffffffffff166110c9846105b7565b73ffffffffffffffffffffffffffffffffffffffff16145b806110f257506110f18185610df2565b5b91505092915050565b8273ffffffffffffffffffffffffffffffffffffffff1661111b826107d4565b73ffffffffffffffffffffffffffffffffffffffff1614611171576040517f08c379a000000000000000000000000000000000000000000000000000000000815260040161116890612529565b60405180910390fd5b600073ffffffffffffffffffffffffffffffffffffffff168273ffffffffffffffffffffffffffffffffffffffff1614156111e1576040517f08c379a00000000000000000000000000000000000000000000000000000000081526004016111d890612569565b60405180910390fd5b6111ec83838361167b565b6111f7600082610f64565b6001600360008573ffffffffffffffffffffffffffffffffffffffff1673ffffffffffffffffffffffffffffffffffffffff1681526020019081526020016000206000828254611247919061292f565b925050819055506001600360008473ffffffffffffffffffffffffffffffffffffffff1673ffffffffffffffffffffffffffffffffffffffff168152602001908152602001600020600082825461129e919061284e565b92505081905550816002600083815260200190815260200160002060006101000a81548173ffffffffffffffffffffffffffffffffffffffff021916908373ffffffffffffffffffffffffffffffffffffffff160217905550808273ffffffffffffffffffffffffffffffffffffffff168473ffffffffffffffffffffffffffffffffffffffff167fddf252ad1be2c89b69c2b068fc378daa952ba7f163c4a11628f55a4df523b3ef60405160405180910390a461135d838383611680565b505050565b8173ffffffffffffffffffffffffffffffffffffffff168373ffffffffffffffffffffffffffffffffffffffff1614156113d1576040517f08c379a00000000000000000000000000000000000000000000000000000000081526004016113c890612589565b60405180910390fd5b80600560008573ffffffffffffffffffffffffffffffffffffffff1673ffffffffffffffffffffffffffffffffffffffff16815260200190815260200160002060008473ffffffffffffffffffffffffffffffffffffffff1673ffffffffffffffffffffffffffffffffffffffff16815260200190815260200160002060006101000a81548160ff0219169083151502179055508173ffffffffffffffffffffffffffffffffffffffff168373ffffffffffffffffffffffffffffffffffffffff167f17307eab39ab6107e8899845ad3d59bd9653f200f220920489ca2b5937696c31836040516114c291906124cc565b60405180910390a3505050565b6114da8484846110fb565b6114e684848484611685565b611525576040517f08c379a000000000000000000000000000000000000000000000000000000000815260040161151c90612509565b60405180910390fd5b50505050565b606060405180602001604052806000815250905090565b606061154d82610ef0565b61158c576040517f08c379a0000000000000000000000000000000000000000000000000000000008152600401611583906126e9565b60405180910390fd5b600061159661152b565b905060008151116115b657604051806020016040528060008152506115e1565b806115c08461181c565b6040516020016115d1929190612441565b6040516020818303038152906040525b915050919050565b6116038282604051806020016040528060008152506119c9565b5050565b61161082610ef0565b61164f576040517f08c379a000000000000000000000000000000000000000000000000000000000815260040161164690612649565b60405180910390fd5b80600660008481526020019081526020016000209080519060200190611676929190611c21565b505050565b505050565b505050565b60006116a68473ffffffffffffffffffffffffffffffffffffffff16611a24565b1561180f578373ffffffffffffffffffffffffffffffffffffffff1663150b7a026116cf610f5c565b8786866040518563ffffffff1660e01b81526004016116f19493929190612480565b602060405180830381600087803b15801561170b57600080fd5b505af192505050801561173c57506040513d601f19601f820116820180604052508101906117399190611fe2565b60015b6117bf573d806000811461176c576040519150601f19603f3d011682016040523d82523d6000602084013e611771565b606091505b506000815114156117b7576040517f08c379a00000000000000000000000000000000000000000000000000000000081526004016117ae90612509565b60405180910390fd5b805181602001fd5b63150b7a0260e01b7bffffffffffffffffffffffffffffffffffffffffffffffffffffffff1916817bffffffffffffffffffffffffffffffffffffffffffffffffffffffff191614915050611814565b600190505b949350505050565b60606000821415611864576040518060400160405280600181526020017f300000000000000000000000000000000000000000000000000000000000000081525090506119c4565b600082905060005b6000821461189657808061187f90612a8e565b915050600a8261188f91906128a4565b915061186c565b60008167ffffffffffffffff8111156118d8577f4e487b7100000000000000000000000000000000000000000000000000000000600052604160045260246000fd5b6040519080825280601f01601f19166020018201604052801561190a5781602001600182028036833780820191505090505b5090505b600085146119bd57600182611923919061292f565b9150600a856119329190612ad7565b603061193e919061284e565b60f81b81838151811061197a577f4e487b7100000000000000000000000000000000000000000000000000000000600052603260045260246000fd5b60200101907effffffffffffffffffffffffffffffffffffffffffffffffffffffffffffff1916908160001a905350600a856119b691906128a4565b945061190e565b8093505050505b919050565b6119d38383611a47565b6119e06000848484611685565b611a1f576040517f08c379a0000000000000000000000000000000000000000000000000000000008152600401611a1690612509565b60405180910390fd5b505050565b6000808273ffffffffffffffffffffffffffffffffffffffff163b119050919050565b600073ffffffffffffffffffffffffffffffffffffffff168273ffffffffffffffffffffffffffffffffffffffff161415611ab7576040517f08c379a0000000000000000000000000000000000000000000000000000000008152600401611aae90612669565b60405180910390fd5b611ac081610ef0565b15611b00576040517f08c379a0000000000000000000000000000000000000000000000000000000008152600401611af790612549565b60405180910390fd5b611b0c6000838361167b565b6001600360008473ffffffffffffffffffffffffffffffffffffffff1673ffffffffffffffffffffffffffffffffffffffff1681526020019081526020016000206000828254611b5c919061284e565b92505081905550816002600083815260200190815260200160002060006101000a81548173ffffffffffffffffffffffffffffffffffffffff021916908373ffffffffffffffffffffffffffffffffffffffff160217905550808273ffffffffffffffffffffffffffffffffffffffff16600073ffffffffffffffffffffffffffffffffffffffff167fddf252ad1be2c89b69c2b068fc378daa952ba7f163c4a11628f55a4df523b3ef60405160405180910390a4611c1d60008383611680565b5050565b828054611c2d90612a2b565b90600052602060002090601f016020900481019282611c4f5760008555611c96565b82601f10611c6857805160ff1916838001178555611c96565b82800160010185558215611c96579182015b82811115611c95578251825591602001919060010190611c7a565b5b509050611ca39190611ca7565b5090565b5b80821115611cc0576000816000905550600101611ca8565b5090565b6000611cd7611cd2846127a9565b612784565b905082815260208101848484011115611cef57600080fd5b611cfa8482856129e9565b509392505050565b6000611d15611d10846127da565b612784565b905082815260208101848484011115611d2d57600080fd5b611d388482856129e9565b509392505050565b600081359050611d4f816130f4565b92915050565b600081359050611d648161310b565b92915050565b600081359050611d7981613122565b92915050565b600081359050611d8e81613139565b92915050565b600081519050611da381613139565b92915050565b600082601f830112611dba57600080fd5b8135611dca848260208601611cc4565b91505092915050565b600082601f830112611de457600080fd5b8135611df4848260208601611d02565b91505092915050565b600081359050611e0c81613150565b92915050565b600060208284031215611e2457600080fd5b6000611e3284828501611d40565b91505092915050565b60008060408385031215611e4e57600080fd5b6000611e5c85828601611d40565b9250506020611e6d85828601611d40565b9150509250929050565b600080600060608486031215611e8c57600080fd5b6000611e9a86828701611d40565b9350506020611eab86828701611d40565b9250506040611ebc86828701611dfd565b9150509250925092565b60008060008060808587031215611edc57600080fd5b6000611eea87828801611d40565b9450506020611efb87828801611d40565b9350506040611f0c87828801611dfd565b925050606085013567ffffffffffffffff811115611f2957600080fd5b611f3587828801611da9565b91505092959194509250565b60008060408385031215611f5457600080fd5b6000611f6285828601611d40565b9250506020611f7385828601611d6a565b9150509250929050565b60008060408385031215611f9057600080fd5b6000611f9e85828601611d40565b9250506020611faf85828601611dfd565b9150509250929050565b600060208284031215611fcb57600080fd5b6000611fd984828501611d7f565b91505092915050565b600060208284031215611ff457600080fd5b600061200284828501611d94565b91505092915050565b60006020828403121561201d57600080fd5b600082013567ffffffffffffffff81111561203757600080fd5b61204384828501611dd3565b91505092915050565b60006020828403121561205e57600080fd5b600061206c84828501611dfd565b91505092915050565b6000806000806080858703121561208b57600080fd5b600061209987828801611dfd565b94505060206120aa87828801611d55565b93505060406120bb87828801611d55565b92505060606120cc87828801611d40565b91505092959194509250565b6120e181612963565b82525050565b6120f081612987565b82525050565b60006121018261280b565b61210b8185612821565b935061211b8185602086016129f8565b61212481612bc4565b840191505092915050565b600061213a82612816565b6121448185612832565b93506121548185602086016129f8565b61215d81612bc4565b840191505092915050565b600061217382612816565b61217d8185612843565b935061218d8185602086016129f8565b80840191505092915050565b60006121a6603283612832565b91506121b182612bd5565b604082019050919050565b60006121c9602583612832565b91506121d482612c24565b604082019050919050565b60006121ec601c83612832565b91506121f782612c73565b602082019050919050565b600061220f602483612832565b915061221a82612c9c565b604082019050919050565b6000612232601983612832565b915061223d82612ceb565b602082019050919050565b6000612255602c83612832565b915061226082612d14565b604082019050919050565b6000612278601283612832565b915061228382612d63565b602082019050919050565b600061229b603883612832565b91506122a682612d8c565b604082019050919050565b60006122be602a83612832565b91506122c982612ddb565b604082019050919050565b60006122e1602983612832565b91506122ec82612e2a565b604082019050919050565b6000612304602e83612832565b915061230f82612e79565b604082019050919050565b6000612327602083612832565b915061233282612ec8565b602082019050919050565b600061234a603383612832565b915061235582612ef1565b604082019050919050565b600061236d603183612832565b915061237882612f40565b604082019050919050565b6000612390602c83612832565b915061239b82612f8f565b604082019050919050565b60006123b3602f83612832565b91506123be82612fde565b604082019050919050565b60006123d6602183612832565b91506123e18261302d565b604082019050919050565b60006123f9600983612832565b91506124048261307c565b602082019050919050565b600061241c603183612832565b9150612427826130a5565b604082019050919050565b61243b816129df565b82525050565b600061244d8285612168565b91506124598284612168565b91508190509392505050565b600060208201905061247a60008301846120d8565b92915050565b600060808201905061249560008301876120d8565b6124a260208301866120d8565b6124af6040830185612432565b81810360608301526124c181846120f6565b905095945050505050565b60006020820190506124e160008301846120e7565b92915050565b60006020820190508181036000830152612501818461212f565b905092915050565b6000602082019050818103600083015261252281612199565b9050919050565b60006020820190508181036000830152612542816121bc565b9050919050565b60006020820190508181036000830152612562816121df565b9050919050565b6000602082019050818103600083015261258281612202565b9050919050565b600060208201905081810360008301526125a281612225565b9050919050565b600060208201905081810360008301526125c281612248565b9050919050565b600060208201905081810360008301526125e28161226b565b9050919050565b600060208201905081810360008301526126028161228e565b9050919050565b60006020820190508181036000830152612622816122b1565b9050919050565b60006020820190508181036000830152612642816122d4565b9050919050565b60006020820190508181036000830152612662816122f7565b9050919050565b600060208201905081810360008301526126828161231a565b9050919050565b600060208201905081810360008301526126a28161233d565b9050919050565b600060208201905081810360008301526126c281612360565b9050919050565b600060208201905081810360008301526126e281612383565b9050919050565b60006020820190508181036000830152612702816123a6565b9050919050565b60006020820190508181036000830152612722816123c9565b9050919050565b60006020820190508181036000830152612742816123ec565b9050919050565b600060208201905081810360008301526127628161240f565b9050919050565b600060208201905061277e6000830184612432565b92915050565b600061278e61279f565b905061279a8282612a5d565b919050565b6000604051905090565b600067ffffffffffffffff8211156127c4576127c3612b95565b5b6127cd82612bc4565b9050602081019050919050565b600067ffffffffffffffff8211156127f5576127f4612b95565b5b6127fe82612bc4565b9050602081019050919050565b600081519050919050565b600081519050919050565b600082825260208201905092915050565b600082825260208201905092915050565b600081905092915050565b6000612859826129df565b9150612864836129df565b9250827fffffffffffffffffffffffffffffffffffffffffffffffffffffffffffffffff0382111561289957612898612b08565b5b828201905092915050565b60006128af826129df565b91506128ba836129df565b9250826128ca576128c9612b37565b5b828204905092915050565b60006128e0826129df565b91506128eb836129df565b9250817fffffffffffffffffffffffffffffffffffffffffffffffffffffffffffffffff048311821515161561292457612923612b08565b5b828202905092915050565b600061293a826129df565b9150612945836129df565b92508282101561295857612957612b08565b5b828203905092915050565b600061296e826129bf565b9050919050565b6000612980826129bf565b9050919050565b60008115159050919050565b60007fffffffff0000000000000000000000000000000000000000000000000000000082169050919050565b600073ffffffffffffffffffffffffffffffffffffffff82169050919050565b6000819050919050565b82818337600083830152505050565b60005b83811015612a165780820151818401526020810190506129fb565b83811115612a25576000848401525b50505050565b60006002820490506001821680612a4357607f821691505b60208210811415612a5757612a56612b66565b5b50919050565b612a6682612bc4565b810181811067ffffffffffffffff82111715612a8557612a84612b95565b5b80604052505050565b6000612a99826129df565b91507fffffffffffffffffffffffffffffffffffffffffffffffffffffffffffffffff821415612acc57612acb612b08565b5b600182019050919050565b6000612ae2826129df565b9150612aed836129df565b925082612afd57612afc612b37565b5b828206905092915050565b7f4e487b7100000000000000000000000000000000000000000000000000000000600052601160045260246000fd5b7f4e487b7100000000000000000000000000000000000000000000000000000000600052601260045260246000fd5b7f4e487b7100000000000000000000000000000000000000000000000000000000600052602260045260246000fd5b7f4e487b7100000000000000000000000000000000000000000000000000000000600052604160045260246000fd5b6000601f19601f8301169050919050565b7f4552433732313a207472616e7366657220746f206e6f6e20455243373231526560008201527f63656976657220696d706c656d656e7465720000000000000000000000000000602082015250565b7f4552433732313a207472616e736665722066726f6d20696e636f72726563742060008201527f6f776e6572000000000000000000000000000000000000000000000000000000602082015250565b7f4552433732313a20746f6b656e20616c7265616479206d696e74656400000000600082015250565b7f4552433732313a207472616e7366657220746f20746865207a65726f2061646460008201527f7265737300000000000000000000000000000000000000000000000000000000602082015250565b7f4552433732313a20617070726f766520746f2063616c6c657200000000000000600082015250565b7f4552433732313a206f70657261746f7220717565727920666f72206e6f6e657860008201527f697374656e7420746f6b656e0000000000000000000000000000000000000000602082015250565b7f6974656d20646f65736e27742065786973740000000000000000000000000000600082015250565b7f4552433732313a20617070726f76652063616c6c6572206973206e6f74206f7760008201527f6e6572206e6f7220617070726f76656420666f7220616c6c0000000000000000602082015250565b7f4552433732313a2062616c616e636520717565727920666f7220746865207a6560008201527f726f206164647265737300000000000000000000000000000000000000000000602082015250565b7f4552433732313a206f776e657220717565727920666f72206e6f6e657869737460008201527f656e7420746f6b656e0000000000000000000000000000000000000000000000602082015250565b7f45524337323155524953746f726167653a2055524920736574206f66206e6f6e60008201527f6578697374656e7420746f6b656e000000000000000000000000000000000000602082015250565b7f4552433732313a206d696e7420746f20746865207a65726f2061646472657373600082015250565b7f4e6f7420656e6f75676820657468657220746f20636f766572206974656d207060008201527f7269636520616e64206d61726b65742066656500000000000000000000000000602082015250565b7f45524337323155524953746f726167653a2055524920717565727920666f722060008201527f6e6f6e6578697374656e7420746f6b656e000000000000000000000000000000602082015250565b7f4552433732313a20617070726f76656420717565727920666f72206e6f6e657860008201527f697374656e7420746f6b656e0000000000000000000000000000000000000000602082015250565b7f4552433732314d657461646174613a2055524920717565727920666f72206e6f60008201527f6e6578697374656e7420746f6b656e0000000000000000000000000000000000602082015250565b7f4552433732313a20617070726f76616c20746f2063757272656e74206f776e6560008201527f7200000000000000000000000000000000000000000000000000000000000000602082015250565b7f4e6f74206f776e65720000000000000000000000000000000000000000000000600082015250565b7f4552433732313a207472616e736665722063616c6c6572206973206e6f74206f60008201527f776e6572206e6f7220617070726f766564000000000000000000000000000000602082015250565b6130fd81612963565b811461310857600080fd5b50565b61311481612975565b811461311f57600080fd5b50565b61312b81612987565b811461313657600080fd5b50565b61314281612993565b811461314d57600080fd5b50565b613159816129df565b811461316457600080fd5b5056fea264697066735822122043f37308a2162f7a94557a410db4e9f74049f0bc00ae5d96dc07d17c8ad90d3464736f6c63430008040033",
  "linkReferences": {},
  "deployedLinkReferences": {}
}